:100000000C94D5000C94FD000C94FD000C94FD00A4
:100010000C94FD000C94FD000C94FD000C94FD006C
:100020000C94FD000C94FD000C94FD000C94FD005C
:100030000C94FD000C94FD000C94FD000C94FD004C
:100040000C94800A0C94FD000C944E0A0C94280A1F
:100050000C94FD000C94FD000C94FD000C94FD002C
:100060000C94CA0A0C94FD0000407A10F35A00A0C8
:10007000724E18090010A5D4E80000E87648170071
:1000800000E40B54020000CA9A3B000000E1F505B1
:10009000000080969800000040420F000000A086FB
:1000A00001000000102700000000E803000000002D
:1000B0006400000000000A000000000001000000D1
:1000C00000002C76D888DC674F0823DFC1DFAE59EB
:1000D000E1B1B796E5E3E453C63AE651997696E87E
:1000E000E6C28426EB898C9B62ED407C6FFCEFBC02
:1000F0009C9F40F2BAA56FA5F490055A2AF75C932D
:100100006B6CF9676DC11BFCE0E40D47FEF520E662
:10011000B500D0ED902E0300943577050080841E45
:10012000080000204E0A000000C80C333333330FA0
:10013000986E12831141EF8D2114893BE65516CF3D
:10014000FEE6DB18D1844B381BF77C1D901DA4BB49
:10015000E424203284725E228100C9F124ECA1E5FE
:100160003D2700000000250028002B0004040404A3
:100170000404040402020202020203030303030351
:10018000010204081020408001020408102001022E
:10019000040810200000000800020100000304070A
:1001A0000000000000000000E90B11241FBECFEF8B
:1001B000D8E0DEBFCDBF23E0A0EAB1E001C01D92D0
:1001C000AB36B207E1F711E0A0E0B1E0EAE1FAE214
:1001D00002C005900D92A03AB107D9F710E0C5ED25
:1001E000D0E004C02197FE010E941313C43DD10743
:1001F000C9F70E94C10C0C940B150C9400000895D3
:100200000895E1EBF2E0A089B18982E08C93A485A6
:10021000B5851C92A685B7858FEC8C93108EA4892A
:10022000B58986E08C93A289B3898C9180618C9387
:10023000A289B3898C9188608C93A289B3898C91AF
:1002400080688C930288F389E02D80818F7D808384
:100250000895AF92BF92CF92DF92EF92FF920F93E9
:100260001F93CF93DF936C017B018B01040F151F4C
:10027000EB015E01AE18BF08C017D10759F06991B4
:10028000D601ED91FC910190F081E02DC601099518
:10029000892B79F7C501DF91CF911F910F91FF90C5
:1002A000EF90DF90CF90BF90AF9008950895FC013C
:1002B000538D448D252F30E0842F90E0821B930BCB
:1002C000541710F0CF96089501970895FC01918D71
:1002D000828D981761F0A28DAE0FBF2FB11D5D9674
:1002E0008C91928D9F5F9F73928F90E008958FEF16
:1002F0009FEF0895FC01918D828D981731F0828DCA
:10030000E80FF11D858D90E008958FEF9FEF089520
:10031000FC01918D228D892F90E0805C9F4F821B84
:1003200091098F739927089581EB92E00E948801CB
:1003300021E0892B09F420E0822F089580E090E0ED
:10034000892B29F00E94940181110C9400000895DA
:10035000FC01A48DA80FB92FB11DA35ABF4F2C913A
:10036000848D90E001968F739927848FA689B78931
:100370002C93A089B1898C91837080648C93938D28
:10038000848D981306C00288F389E02D80818F7DCB
:1003900080830895EF92FF920F931F93CF93DF9383
:1003A000EC0181E0888F9B8D8C8D98131AC0E889B1
:1003B000F989808185FF15C09FB7F894EE89FF8980
:1003C0006083E889F98980818370806480839FBF1E
:1003D00081E090E0DF91CF911F910F91FF90EF901E
:1003E0000895F62E0B8D10E00F5F1F4F0F7311272E
:1003F000E02E8C8D8E110CC00FB607FCFACFE88969
:10040000F989808185FFF5CFCE010E94A801F1CF47
:10041000EB8DEC0FFD2FF11DE35AFF4FF0829FB7DC
:10042000F8940B8FEA89FB8980818062CFCFCF93CC
:10043000DF93EC01888D8823B9F0AA89BB89E8890C
:10044000F9898C9185FD03C0808186FD0DC00FB6B2
:1004500007FCF7CF8C9185FFF2CF808185FFEDCF30
:10046000CE010E94A801E9CFDF91CF91089590E0DD
:10047000FC01EC56FE4F2491FC01E058FE4F3491F4
:10048000FC01E459FE4FE491EE23C9F0222339F038
:10049000233001F1A8F4213019F1223029F1F0E0E4
:1004A000EE0FFF1FEE59FE4FA591B4918FB7F89450
:1004B000EC91611126C030953E233C938FBF089587
:1004C0002730A9F02830C9F0243049F78091800006
:1004D0008F7D03C0809180008F7780938000DFCF75
:1004E00084B58F7784BDDBCF84B58F7DFBCF8091C2
:1004F000B0008F778093B000D2CF8091B0008F7D15
:10050000F9CF3E2BDACF3FB7F8948091E901909173
:10051000EA01A091EB01B091EC0126B5A89B05C0C2
:100520002F3F19F00196A11DB11D3FBFBA2FA92F72
:10053000982F8827BC01CD01620F711D811D911D6F
:1005400042E0660F771F881F991F4A95D1F70895DB
:100550008F929F92AF92BF92CF92DF92EF92FF92D3
:100560004B015C010E9483026B017C010E948302AB
:100570006C197D098E099F09683E734081059105BC
:10058000A8F321E0821A9108A108B10888EEC80EEC
:1005900083E0D81EE11CF11C81149104A104B10474
:1005A00029F7FF90EF90DF90CF90BF90AF909F9092
:1005B0008F9008952FB7F8946091E5017091E6014E
:1005C0008091E7019091E8012FBF08952091C1012A
:1005D000260F3327331F21323105ECF420915902C5
:1005E000FC0190E080E0243069F082E00895A09161
:1005F000C1012191AC014F555E4FA40FB52FB11D24
:100600002C930196861798F38091C101680F60932F
:10061000C10180E0089581E00895ECEBF0E0808175
:100620008A7B808360E082E10E94370260E083E1A0
:100630000C9437021092590281E080933802109294
:10064000330261E082E10E94370261E083E10E94AF
:100650003702E9EBF0E080818E7F808380818D7F9F
:10066000808388E48093B80085E48093BC0008957B
:10067000CF93DF9391E09093A001882361F0C09124
:10068000B800D091BA000E940D030E941A03D093C3
:10069000BA00C093B800DF91CF910895CF92DF9256
:1006A000EF92FF920F931F93CF93DF93D82FC62F14
:1006B000613208F098C00E9483026B017C01809136
:1006C000590281116BC081E08093590280933802F6
:1006D0009FEF90933702109236029C0F9093350251
:1006E0008093340280913402DD0FD82BD0933402F2
:1006F00080913302813009F078C0109233020E9459
:1007000083026B017C01809134028093BB00809155
:100710005B0290915C02A0915D02B0915E02892B18
:100720008A2B8B2BA1F00E94830200915B02109117
:100730005C0220915D0230915E026C197D098E0988
:100740009F09061717072807390708F448C0809142
:10075000BC0083FDD8CF85EC8093BC000E9483024F
:100760006B017C0180915902813009F440C0809175
:1007700036028C1710F4C0913602E3E1F2E0A9E3EF
:10078000B2E080E08C1355C08C2FDF91CF911F9188
:100790000F91FF90EF90DF90CF90089580915B02D2
:1007A00090915C02A0915D02B0915E02892B8A2B30
:1007B0008B2B09F484CF0E94830200915B0210917D
:1007C0005C0220915D0230915E026C197D098E09F8
:1007D0009F09061717072807390708F070CF80917F
:1007E0005A020E943803C0E0CFCF85EEB5CF80918A
:1007F0005B0290915C02A0915D02B0915E02892B38
:100800008A2B8B2B09F4AECF0E94830200915B02EE
:1008100010915C0220915D0230915E026C197D099D
:100820008E099F09061717072807390708F09ACF7E
:10083000D6CF91919D938F5FA5CF8F929F92AF92CC
:10084000BF92CF92DF92EF92FF920F931F93CF93BD
:10085000DF93D0915203D13208F0D7C0182FC09146
:1008600012020E9483026B017C0180915902811166
:100870006BC082E080935902109338028FEF80930F
:10088000370210923602D0933502A2EFB1E0E3E1D5
:10089000F2E080E0D81391C01092340280913402CB
:1008A000CC0FC82BC093340280913302813009F001
:1008B00088C0109233020E9483026B017C018091F8
:1008C00034028093BB0080915B0290915C02A09106
:1008D0005D02B0915E02892B8A2B8B2BA1F00E94C6
:1008E000830200915B0210915C0220915D023091C5
:1008F0005E026C197D098E099F09061717072807E4
:10090000390708F442C08091BC0083FDD8CF85EC44
:100910008093BC000E9483026B017C01809159028C
:10092000823009F450C0809137028F3F09F46FC0C4
:1009300080913702803209F46CC080913702803395
:1009400009F469C084E026C080915B0290915C024A
:10095000A0915D02B0915E02892B8A2B8B2B09F44A
:1009600084CF0E94830280905B0290905C02A090F2
:100970005D02B0905E026C197D098E099F09861692
:100980009706A806B90608F070CF80915A020E9417
:10099000380385E010925303109252031092F10134
:1009A000DF91CF911F910F91FF90EF90DF90CF904B
:1009B000BF90AF909F908F9008959D9191938F5F7E
:1009C00069CF85EEA5CF80915B0290915C02A091EA
:1009D0005D02B0915E02892B8A2B8B2B09F49ECF8E
:1009E0000E94830200915B0210915C0220915D02E3
:1009F00030915E026C197D098E099F090617170751
:100A00002807390708F08ACFC0CF81E0C3CF80E044
:100A1000C1CF82E0BFCF83E0BDCFCF93C42FA091E1
:100A20005903B0915A0391E09093F101809312021F
:100A30001092530310925203ED91FC911197019083
:100A4000F081E02DCD0109958091590390915A03D1
:100A5000DC01ED91FC910190F081E02D6C2F099566
:100A600081E00E941D0421E030E0882311F030E095
:100A700020E0C901CF91089543E062E28EE10E9437
:100A80000D0540E060E18BE60E940D0540E060E26C
:100A90008BE60E940D050C940D03E09155038091A7
:100AA0005403E81730F4F0E0E75CFD4F808190E0FC
:100AB00008958FEF9FEF089590915503809154030F
:100AC0002FEF3FEF981748F4E92FF0E0E75CFD4F78
:100AD000208130E09F5F90935503C9010895809174
:100AE000540390915503891B990B0895CF92DF927F
:100AF000EF92FF920F931F93CF93DF937C01CB0173
:100B00008A012091F101222389F0EB016B01C40ECF
:100B1000D51ECC15DD0569F06991D701ED91FC91E9
:100B20000190F081E02DC7010995F3CF642F0E9459
:100B3000E602C801DF91CF911F910F91FF90EF90D6
:100B4000DF90CF900895CF93DF931F92CDB7DEB79C
:100B500069832091F1012223F9F020915203203280
:100B600058F021E030E0FC013383228390E080E004
:100B70000F90DF91CF91089580915303E82FF0E01B
:100B8000EE50FE4F998190838F5F80935303809343
:100B9000520381E090E0ECCF61E0CE0101960E942B
:100BA000E602F7CF90E080E0089560E070E080EA30
:100BB00091E4089560E070E08EEE92E40895089567
:100BC000FC0101900020E9F73197AF01481B590B58
:100BD000BC0181EB92E00C9429018F929F92AF921D
:100BE000BF920F931F93CF93DF93CDB7DEB7A1973B
:100BF0000FB6F894DEBF0FBECDBF19A2423008F485
:100C00004AE08E010F5D1F4F842E912CB12CA12C38
:100C1000A50194010E94BA12E62FB901CA01EA3077
:100C2000F4F4E05DD801EE938D01232B242B252BCA
:100C300079F790E080E0109719F0CD010E94E0056F
:100C4000A1960FB6F894DEBF0FBECDBFDF91CF9156
:100C50001F910F91BF90AF909F908F900895E95C86
:100C6000E1CFCF93DF93FC01448155816081718195
:100C700081EB92E00E942901EC0184E491E00E9462
:100C8000E0058C0F9D1FDF91CF910895CF93DF93E7
:100C90000E94E005EC0184E491E00E94E0058C0FE5
:100CA0009D1FDF91CF9108951F93CF93DF93EC01A8
:100CB000162F8B819C8121E02093F1016093120219
:100CC0001092530310925203DC01ED91FC910190BC
:100CD000F081E02D642F099581E00E941D048111AF
:100CE00016C061E0812F0E944E031092550380933D
:100CF0005403813061F48B819C81DC01ED91FC9186
:100D00000284F385E02DDF91CF911F9109948FEF3D
:100D10009FEFDF91CF911F91089547E26EE10E940E
:100D2000540683FB882780F990E0089547E16BE63D
:100D30000E9454068695817090E00895FC012281FE
:100D4000222371F04FE26BE60E9454068F739927BD
:100D500031E020E0892B09F430E0832F922F0895B1
:100D600047E16BE60E945406817099270895EF923F
:100D7000FF920F931F93CF93DF938C01C62F7901BE
:100D8000DC0113968D919C9121E02093F1016093F9
:100D900012021092530310925203642F6068DC0118
:100DA000ED91FC910190F081E02D099580E00E9489
:100DB0001D04811125C066E08C2F0E944E03109205
:100DC0005503809354038630F1F4E701B6E0EB0E4F
:100DD000F11CF80183819481DC01ED91FC91028486
:100DE000F385E02D09958993CE15DF0591F781E014
:100DF00090E0DF91CF911F910F91FF90EF900895B8
:100E00008FEF9FEFF6CF90E080E0F3CFCF92DF92AD
:100E1000EF92FF920F931F93CF93DF9300D000D0F8
:100E200000D0CDB7DEB76B017A0189019E012F5F3B
:100E30003F4F48E26EE10E94B706009711F540E08F
:100E400050E060EC7FE7F601408351836283738357
:100E5000F7014083518362837383F8014083518398
:100E60006283738326960FB6F894DEBF0FBECDBFA4
:100E7000DF91CF911F910F91FF90EF90DF90CF9076
:100E8000089569817A81072E000C880B990B0E94C6
:100E9000C11120E030E040E850E40E94FC1120E065
:100EA00030E048EC52E40E94FC1120E030E040E0E9
:100EB00058E30E94FC11F60160837183828393835F
:100EC0006B817C81072E000C880B990B0E94C1114D
:100ED00020E030E040E850E40E94FC1120E030E0E7
:100EE00048EC52E40E94FC1120E030E040E058E37E
:100EF0000E94FC11F70160837183828393836D816B
:100F00007E81072E000C880B990B0E94C11120E0F6
:100F100030E040E850E40E94FC1120E030E048EC72
:100F200052E40E94FC1120E030E040E058E30E94CF
:100F3000FC11F801608371838283938381E090E0E8
:100F400091CFCF92DF92EF92FF920F931F93CF93A7
:100F5000DF9300D000D000D0CDB7DEB76B017A01AF
:100F600089019E012F5F3F4F48E16BE60E94B70663
:100F7000009711F540E050E060EC7FE7F601408318
:100F8000518362837383F701408351836283738348
:100F9000F801408351836283738326960FB6F894D9
:100FA000DEBF0FBECDBFDF91CF911F910F91FF909C
:100FB000EF90DF90CF90089569817A81072E000C21
:100FC000880B990B0E94C11120E030E04AEF54E4F5
:100FD0000E94FC1120E030E040E058E30E94FC1148
:100FE000F60160837183828393836B817C81072EFA
:100FF000000C880B990B0E94C11120E030E04AEFF1
:1010000054E40E94FC1120E030E040E058E30E94EC
:10101000FC11F70160837183828393836D817E81EC
:10102000072E000C880B990B0E94C11120E030E0C4
:101030004AEF54E40E94FC1120E030E040E058E325
:101040000E94FC11F801608371838283938381E0A5
:1010500090E0A3CFCF92DF92EF92FF920F931F9376
:10106000CF93DF9300D000D000D0CDB7DEB76B01B7
:101070007A0189019E012F5F3F4F48E26BE60E9493
:10108000B706009711F540E050E060EC7FE7F6010D
:101090004083518362837383F7014083518362836A
:1010A0007383F801408351836283738326960FB65E
:1010B000F894DEBF0FBECDBFDF91CF911F910F918E
:1010C000FF90EF90DF90CF90089569817A81072E8D
:1010D000000C880B990B0E94C11120E030E040E821
:1010E00050E40E94FC1120E030E040E058E30E9410
:1010F000FC11F60160837183828393836B817C8111
:10110000072E000C880B990B0E94C11120E030E0E3
:1011100040E850E40E94FC1120E030E040E058E359
:101120000E94FC11F70160837183828393836D8138
:101130007E81072E000C880B990B0E94C11120E0C4
:1011400030E040E850E40E94FC1120E030E040E054
:1011500058E30E94FC11F8016083718382839383BA
:1011600081E090E0A3CFEF92FF920F931F93CF9374
:10117000DF9300D000D0CDB7DEB781EB92E00E94C4
:10118000660181EB92E00E9466018E010F5F1F4FA6
:1011900078018A3341F0F80181938F0181EB92E06D
:1011A0000E946601F6CFC7010E94620F182F81EBE3
:1011B00092E00E9466018053990B8230910520F4E1
:1011C000682F812F0E94370281EB92E00E94660116
:1011D0008A3011F08D30C1F781EB92E00E947A01E4
:1011E0008A3021F481EB92E00E9466010F900F900B
:1011F0000F900F90DF91CF911F910F91FF90EF9083
:1012000008950F931F93CF93DF93EC018881998109
:10121000009759F02A813B812617370730F081E08B
:10122000DF91CF911F910F9108958B016F5F7F4FD9
:101230000E943E14009759F0998388831B830A8388
:101240002C813D81232B59F7FC011082E8CF80E0EF
:10125000E7CFCF93DF93EC0188819981009711F05C
:101260000E94B513198218821D821C821B821A8269
:10127000DF91CF910895EF92FF920F931F93CF9339
:10128000DF938C017B01EB0109900020E9F72197A6
:10129000C61BD70BBE010E940109811109C0C801FC
:1012A000DF91CF911F910F91FF90EF900C9429093E
:1012B000F801D583C483B70180819181DF91CF91FB
:1012C0001F910F91FF90EF900C940415CF92DF9235
:1012D000EF92FF920F931F93CF93DF93CDB7DEB7BB
:1012E000A1970FB6F894DEBF0FBECDBF7C01CB0136
:1012F000BA01F701118210821382128215821482C0
:101300008E010F5F1F4F22E044E00E94440F6C01EA
:10131000009771F0FC0101900020E9F731978F01EF
:10132000081B190BB801C7010E940109811112C0E5
:10133000C7010E942909A1960FB6F894DEBF0FBE1F
:10134000CDBFDF91CF911F910F91FF90EF90DF9074
:10135000CF900895F70115830483B60180819181B0
:101360000E940415E8CFEF92FF920F931F93CF9343
:10137000DF93EC01FB01E080F180E114F10411F155
:101380000481158101151105A9F08C819D81080F3B
:10139000191FB801CE010E940109882399F0288104
:1013A00039818C819D81B701820F931F0E940415A2
:1013B0001D830C83CE01DF91CF911F910F91FF9080
:1013C000EF900895CE010E942909F4CFFC0180819D
:1013D0009181009711F00C94B51308950C94B513F6
:1013E00085ED8093BC0080915B0290915C02A0919E
:1013F0005D02B0915E020796A11DB11D23E0B69576
:10140000A795979587952A95D1F72091BC0024FD43
:1014100003C010925902089540915B0250915C0202
:1014200060915D0270915E02452B462B472B69F35C
:101430000097A105B10541F025E32A95F1F70000D9
:101440000197A109B109E1CF80915A020C943803A8
:101450001F920F920FB60F9211242F933F934F9329
:101460005F936F937F938F939F93AF93BF93EF930C
:10147000FF9381EB92E00E94A801FF91EF91BF9151
:10148000AF919F918F917F916F915F914F913F911C
:101490002F910F900FBE0F901F9018951F920F92D3
:1014A0000FB60F9211242F938F939F93EF93FF9377
:1014B000E091C102F091C2028081E091C702F091F7
:1014C000C80282FD1BC090818091CA028F5F8F731A
:1014D0002091CB02821741F0E091CA02F0E0EF5474
:1014E000FD4F958F8093CA02FF91EF919F918F914D
:1014F0002F910F900FBE0F901F9018958081F4CF01
:101500001F920F920FB60F9211242F933F938F9338
:101510009F93AF93BF938091E5019091E601A091D5
:10152000E701B091E8013091E40123E0230F2D376A
:1015300058F50196A11DB11D2093E4018093E501AA
:101540009093E601A093E701B093E8018091E9014F
:101550009091EA01A091EB01B091EC010196A11DDF
:10156000B11D8093E9019093EA01A093EB01B09340
:10157000EC01BF91AF919F918F913F912F910F906F
:101580000FBE0F901F90189526E8230F0296A11DFD
:10159000B11DD2CF1F920F920FB60F9211242F932D
:1015A0003F934F935F936F937F938F939F93AF93EB
:1015B000BF93EF93FF938091B900887F803609F441
:1015C0004AC0F0F5883209F4A7C018F5803109F453
:1015D0009BC0B8F4882309F4F9C0883009F494C09A
:1015E000FF91EF91BF91AF919F918F917F916F91FB
:1015F0005F914F913F912F910F900FBE0F901F90D1
:101600001895883109F488C0803251F780933702E9
:1016100014C0803409F49DC040F48033B9F388339A
:10162000F9F68093370285ECB0C0803509F485C0A7
:10163000883509F496C0883499F60E94F009D0CF15
:10164000883909F48CC038F5883729F050F4883689
:1016500011F0803729F683E0809359021092E3015C
:1016600057C0883809F47BC0803919F0803809F0F8
:10167000B7CF8091E301803208F071C0E091E301BF
:1016800081E08E0F8093E3018091BB00F0E0ED5389
:10169000FE4F80833DC0803B39F0E0F4803A09F48E
:1016A00079C0883A09F09CCF84E080935902109267
:1016B000C2011092C101E0915003F09151030995CC
:1016C0008091C10181110FC081E08093C10110920E
:1016D000A10109C0803C09F4A6CF883C09F4A3CF3E
:1016E000883B09F07DCFE091C20181E08E0F8093AD
:1016F000C201F0E0EF55FE4F80818093BB009091D6
:10170000C2018091C10129C0809134028093BB0045
:1017100085EC8093BC0064CF9091360280913502B5
:10172000981758F5E091360281E08E0F80933602CB
:10173000F0E0ED5EFD4F8081E9CFE091360281E07F
:101740008E0F809336028091BB00F0E0ED5EFD4F7E
:10175000808390913602809135029817C8F285E80F
:10176000D8CFE091360281E08E0F809336028091CF
:10177000BB00F0E0ED5EFD4F808380913802811167
:101780005CCF81E08093330284EA8093BC001092A6
:10179000590226CF85EC8093BC00109259028091AB
:1017A000E301803230F4E091E301F0E0ED53FE4FCD
:1017B00010826091E30170E0E0914E03F0914F03DD
:1017C00083EC91E009951092E3010ACF1092370261
:1017D00034CF1092B4021092B30288EE93E0A0E0EE
:1017E000B0E08093B5029093B602A093B702B09395
:1017F000B8022AE031E03093B2022093B10225EC26
:1018000030E03093BE022093BD0224EC30E03093F0
:10181000C0022093BF0220EC30E03093C20220933C
:10182000C10221EC30E03093C4022093C30222ECC9
:1018300030E03093C6022093C50226EC30E03093AE
:10184000C8022093C7021092CA021092CB021092D3
:10185000CC021092CD02109262021092610280932B
:10186000630290936402A0936502B09366028CE1D8
:1018700091E09093600280935F028EE291E09093FA
:10188000570380935603109258038FE592E090938C
:101890005A038093590310927102109272021092AF
:1018A00073021092740210927502109276021092D6
:1018B0007702109278021092790210927A021092B6
:1018C0007B0210927C0210927D0210927E02109296
:1018D0007F021092800210925503109254031092CE
:1018E0005303109252030E941A038FEF90E09093DB
:1018F00051038093500380E091E090934F038093D5
:101900004E0345E062E28BE60E940D054CE061E289
:101910008EE10E940D056AE070E080E090E00E9498
:10192000A8024FE06BE686E593E00E9454068836F5
:10193000910531F00E943C0587E491E00C94460645
:101940004FE06EE186E593E00E945406CD9791F753
:1019500048E760E18BE60E940D0540E760E28BE618
:101960000E940D0544EB60E28EE10E940D0540E00F
:1019700061E28EE10E940D0540E062E28EE10C948E
:101980000D05CF93DF93CDB7DEB760970FB6F89410
:10199000DEBF0FBECDBF789484B5826084BD84B5B0
:1019A000816084BD85B5826085BD85B5816085BD5A
:1019B00080916E00816080936E0010928100809112
:1019C000810082608093810080918100816080939A
:1019D0008100809180008160809380008091B100BF
:1019E00084608093B1008091B00081608093B000EA
:1019F00080917A00846080937A0080917A0082607E
:101A000080937A0080917A00816080937A0080913F
:101A10007A00806880937A001092C1001092AD0223
:101A20001092AE021092AF021092B00210926D02AC
:101A300010926E0210926F02109270020E94DA02EF
:101A40006B017C014B015C0128EB820E2BE0921EA6
:101A5000A11CB11C0E94DA026C157D058E059F0544
:101A600028F086169706A806B906A0F768EE73E078
:101A700080E090E00E94A8020E9401010E94DA0228
:101A800060936D0270936E0280936F029093700268
:101A900081E691E00E94E0050E94DA026B017C0180
:101AA0004B015C013AE0830E911CA11CB11C0E9409
:101AB000DA026C157D058E059F0528F086169706BF
:101AC000A806B906A0F781E0809381020E94DA029D
:101AD00060936D0270936E0280936F029093700218
:101AE00082E791E00E94E0050E94010100E010E021
:101AF00084EF882E99249394A12CB12C0E94DA02B1
:101B0000672B682B692B09F4ECC00E94DA02C090A5
:101B1000ED01D090EE01E090EF01F090F0016C1536
:101B20007D058E059F0508F4A6C1C090ED01D090FB
:101B3000EE01E090EF01F090F0019B01AC012C1957
:101B40003D094E095F0969017A013AEFC316D104D4
:101B5000E104F10408F4CDC06093ED017093EE014F
:101B60008093EF019093F0018092790290927A0233
:101B7000A0927B02B0927C0210927D0210927E02B3
:101B800010927F02109280028091710290917202F5
:101B9000A0917302B09174028093750290937602C3
:101BA000A0937702B09378020E94DA0260937102E8
:101BB00070937202809373029093740281EB92E0AF
:101BC0000E947A01843611F40E94B3080E94DA025E
:101BD00060936D0270936E0280936F029093700217
:101BE0000E94DA026B017C0189E791E00E94E00526
:101BF0004AE061E070E080E090E00E94ED0580E85E
:101C000091E00E94E0054AE0C701B6010E94ED059F
:101C100082E891E00E94E005809171029091720249
:101C2000A0917302B0917402A7019601281B390B91
:101C30004A0B5B0BCA01B9014AE00E94ED0582E83C
:101C400091E00E94E00560917102709172028091B2
:101C5000730290917402C0907502D0907602E09069
:101C60007702F09078026C197D098E099F094AE08D
:101C70000E94ED0584E891E00E94E0050E94DA02EE
:101C80004AE00E94ED0586E891E00E9446060E9427
:101C9000DA022B013C017C016B0135E0C30ED11C43
:101CA000E11CF11C0E94DA02641575058605970592
:101CB00028F0C616D706E806F906A0F781EB92E0F1
:101CC0000E947A01843611F40E94B3080E94DA025D
:101CD0006093710270937202809373029093740206
:101CE00008C00E94DA02623071058105910508F092
:101CF0000CCF86E593E00E949E06892B89F19E0118
:101D00002F5F3F4FAE01495F5F4FBE01635F7F4F63
:101D100086E593E00E942A088D859E85AF85B88967
:101D200080935B0390935C03A0935D03B0935E0389
:101D30008F819885A985BA8580935F03909360030E
:101D4000A0936103B093620389819A81AB81BC81C6
:101D50008093630390936403A0936503B093660339
:101D60008DE891E00E94460640915B0350915C0330
:101D700060915D0370915E03CE0107960E94660933
:101D80001A8219821C821B821E821D8263E971E005
:101D9000CE0101960E943B09BE01695F7F4FCE01D3
:101DA00001960E94B3090E943106CE0101960E945D
:101DB000E609CE0107960E94E60940915F03509123
:101DC00060036091610370916203CE0107960E94E7
:101DD00066091A8219821C821B821E821D8267E993
:101DE00071E0CE0101960E943B09BE01695F7F4F01
:101DF000CE0101960E94B3090E943106CE010196E0
:101E00000E94E609CE0107960E94E609409163030D
:101E1000509164036091650370916603CE0107964B
:101E20000E9466091A8219821C821B821E821D82F0
:101E30006BE971E0CE0101960E943B09BE01695F2A
:101E40007F4FCE0101960E94B3090E943106CE0158
:101E500001960E94E609CE0107960E94E609011547
:101E6000110509F44BCE0E949401882309F446CE53
:101E70000E94000043CE6093ED017093EE018093C9
:101E8000EF019093F00151CEEF920F931F93CF93F8
:101E9000DF93E80134E047FD34E1042E000C550BDC
:101EA00057FF03C0519541955109E32E022F242F6E
:101EB000AE010E94880FCE01DF91CF911F910F914B
:101EC000EF900895FC0188279927E894219120320A
:101ED000E9F3293010F02E30C8F32B3241F02D32C7
:101EE00039F4689404C00E94800F820F911D2191E3
:101EF00020532A30C0F31EF4909581959F4F08958A
:101F00007AE0979F902D879F802D910D1124089541
:101F1000A9E0B0E0EEE8FFE00C94E2126A01F22ED4
:101F2000B02E102FFBE3AF2EA01608F41BE31F5FAB
:101F3000012F27E0AE014F5F5F4F0E94E710BC0109
:101F40008981982F9970913009F43FC09BE2E1FCA0
:101F500004C09E2D9170E0FC3AC05E2D5071E82FB8
:101F6000E87083FF46C084E0911101C083E0EF2D4B
:101F7000E81B8F1508F0E0E0D6018E2F20E25523F4
:101F800051F1992329F0D6019C93C60101966C0169
:101F900096012D5F3F4FE2FE24C08EE4D6018C9364
:101FA00091E411969C93119712968C93D9018E2FE0
:101FB00090E281111BC0E20FF32FF11D10828EEF12
:101FC0009FEF2996ECE00C94FE129DE2C6CF90E2C2
:101FD000C4CF2D9381508111FCCFCE0ED11CE0E0F7
:101FE000D0CF8EE6D6018C9391E6DBCF9D938150C6
:101FF000E0CF482F447082FF3DC084E0911101C0C2
:1020000083E08F1510F4EF2DE81BD6018E2F20E210
:10201000552309F1992329F0D6019C93C601019615
:102020006C0196012D5F3F4FE2FE1BC089E4D60193
:102030008C938EE411968C93119786E412968C9370
:10204000D9018E2F90E2882309F4B5CF9D9381505A
:10205000FACF2D9381508111FCCFCE0ED11CE0E040
:10206000D9CF89E6D6018C938EE611968C93119781
:1020700086E6E4CF9B0177FF02C030E020E0A1E0DC
:10208000B0E0911102C0B0E0A0E0F9013196AE0FCE
:10209000BF1F8B2C912CBB2009F461C05401EFEFC2
:1020A000AE1ABE0AAA0DBB1DFA161B0619F014F0D3
:1020B0004F2D4A1B511188C0E3FC59C07601A42F53
:1020C000B0E2A1114FC0C40ED11C992309F45BC02A
:1020D00040E0D6011196F60190836D01552309F475
:1020E00048C0012F060F9A81582F507184FF03C0FA
:1020F000913309F4015010160CF047C0093008F074
:1021000008E0EEE2FE2E5B01A01AB1088501919471
:10211000819491082F3F320729F4D601FC92F601F1
:1021200031966F016217730794F1021713077CF55C
:10213000DB01A21BB30BAA24A394B12CAC0EBD1ED1
:10214000AA0DBB1D11968C9121503109D601119613
:1021500028153905F4F0F60180836D01DBCFB12C31
:10216000A12CA0CFF701B1937F01A150AACF91116B
:10217000B0CFD601942F50E302C05D9391509111DE
:10218000FCCFC40ED11C40E0ACCF01E0BACF80E35D
:10219000DBCF6217730731F4963388F4953311F46B
:1021A000552369F0F6018083FD01842F90E28111AF
:1021B00008C0A40FB11D1C9290E080E002CF81E323
:1021C000F1CF91938150F3CF911183CF8ACF2830F3
:1021D00008F027E03327DA01990F311D87FD916060
:1021E00000966105710539F432602E5F3D9330E34E
:1021F0002A95E1F708959F3F30F080387105610519
:1022000009F03C5F3C5F3D93913008F08068911D80
:10221000DF93CF931F930F93FF92EF92192F987F25
:102220009695E92F96959695E90FFF27EE53FF4F68
:1022300099273327EE24FF24A701E701059008948E
:10224000079428F4360FE71EF81E491F511D660F2C
:10225000771F881F991F0694A1F70590079428F40B
:10226000E70EF81E491F561FC11D770F881F991FC3
:10227000661F0694A1F70590079428F4F80E491FED
:10228000561FC71FD11D880F991F661F771F069401
:10229000A1F70590079420F4490F561FC71FD81FB8
:1022A000990F661F771F881F0694A9F784911095D0
:1022B000177041F0D695C79557954795F794E794D1
:1022C0001A95C1F7E8E6F0E06894159015913591FC
:1022D0006591959105907FE27395E118F10A430BA2
:1022E000560BC90BD009C0F7E10CF11E431F561F56
:1022F000C91FD01D7EF4703311F48A95E6CFE8949F
:10230000015030F0080F0AF40027021708F4202FBC
:102310002395022F7A3328F079E37D932A95E9F704
:1023200010C07D932A9589F6069497956795379501
:1023300017951794E118F10A430B560BC90BD009F6
:1023400098F023957E9173957A3308F070E37C932F
:102350002013B8F77E9170617D9330F0839571E31F
:102360007D9370E32A95E1F71124EF90FF900F9190
:102370001F91CF91DF91992787FD90950895E8945B
:1023800009C097FB3EF490958095709561957F4FBD
:102390008F4F9F4F9923A9F0F92F96E9BB2793956B
:1023A000F695879577956795B795F111F8CFFAF47B
:1023B000BB0F11F460FF1BC06F5F7F4F8F4F9F4FAC
:1023C00016C0882311F096E911C0772321F09EE80A
:1023D000872F762F05C0662371F096E8862F70E070
:1023E00060E02AF09A95660F771F881FDAF7880F4A
:1023F0009695879597F908950E940F120C94801274
:102400000E94721238F00E94791220F0952311F088
:102410000C9469120C946F1211240C94B4120E9443
:10242000911270F3959FC1F3950F50E0551F629F75
:10243000F001729FBB27F00DB11D639FAA27F00D1D
:10244000B11DAA1F649F6627B00DA11D661F829F44
:102450002227B00DA11D621F739FB00DA11D621F29
:10246000839FA00D611D221F749F3327A00D611D46
:10247000231F849F600D211D822F762F6A2F112428
:102480009F5750409AF0F1F088234AF0EE0FFF1F5B
:10249000BB1F661F771F881F91505040A9F79E3FB2
:1024A000510580F00C9469120C94B4125F3FE4F370
:1024B000983ED4F3869577956795B795F795E79508
:1024C0009F5FC1F7FE2B880F911D9695879597F911
:1024D000089597F99F6780E870E060E008959FEFA6
:1024E00080EC089500240A941616170618060906AB
:1024F000089500240A94121613061406050608957A
:10250000092E0394000C11F4882352F0BB0F40F401
:10251000BF2B11F460FF04C06F5F7F4F8F4F9F4F41
:10252000089557FD9058440F551F59F05F3F71F0C3
:102530004795880F97FB991F61F09F3F79F087952A
:102540000895121613061406551FF2CF4695F1DFB3
:1025500008C0161617061806991FF1CF8695710543
:10256000610508940895E894BB2766277727CB0177
:1025700097F90895A1E21A2EAA1BBB1BFD010DC0FD
:10258000AA1FBB1FEE1FFF1FA217B307E407F50723
:1025900020F0A21BB30BE40BF50B661F771F881FFF
:1025A000991F1A9469F760957095809590959B0195
:1025B000AC01BD01CF0108952F923F924F925F92DF
:1025C0006F927F928F929F92AF92BF92CF92DF9243
:1025D000EF92FF920F931F93CF93DF93CDB7DEB7A8
:1025E000CA1BDB0B0FB6F894DEBF0FBECDBF09943C
:1025F0002A88398848885F846E847D848C849B8493
:10260000AA84B984C884DF80EE80FD800C811B81A0
:10261000AA81B981CE0FD11D0FB6F894DEBF0FBECF
:10262000CDBFED010895EE0FFF1F0590F491E02D51
:1026300009940F931F93CF93DF938230910510F489
:1026400082E090E0E0916903F0916A0330E020E0DD
:10265000B0E0A0E0309799F42115310509F44AC0A3
:10266000281B390B24303105D8F58A819B816115EF
:10267000710589F1FB0193838283FE0111C04081C2
:1026800051810281138148175907E0F04817590713
:1026900099F4109761F012960C93129713961C936D
:1026A0003296CF01DF91CF911F910F910895009342
:1026B000690310936A03F4CF2115310551F04217D5
:1026C000530738F0A901DB019A01BD01DF01F801D0
:1026D000C1CFEF01F9CF90936A0380936903CDCF07
:1026E000FE01E20FF31F8193919322503109398348
:1026F0002883D7CF2091670330916803232B41F4BF
:102700002091020130910301309368032093670305
:1027100020910001309101012115310541F42DB7BF
:102720003EB74091040150910501241B350BE09107
:102730006703F0916803E217F307A0F42E1B3F0B29
:102740002817390778F0AC014E5F5F4F2417350723
:1027500048F04E0F5F1F50936803409367038193C7
:1027600091939FCFF0E0E0E09CCFCF93DF93009771
:10277000E9F0FC01329713821282A0916903B091B3
:102780006A03ED0130E020E01097A1F4208131814F
:10279000820F931F20916703309168032817390730
:1027A00009F061C0F0936803E0936703DF91CF9174
:1027B0000895EA01CE17DF07E8F54A815B819E01A3
:1027C00041155105B1F7E901FB83EA83499159911C
:1027D000C40FD51FEC17FD0761F48081918102962B
:1027E000840F951FE90199838883828193819B835C
:1027F0008A83F0E0E0E012968D919C911397009708
:10280000B9F52D913C911197CD010296820F931F3E
:1028100020916703309168032817390739F63097FC
:1028200051F510926A0310926903B0936803A09364
:102830006703BCCFD383C28340815181840F951F2E
:10284000C817D90761F44E5F5F4F88819981480F9F
:10285000591F518340838A819B81938382832115F1
:10286000310509F0B0CFF0936A03E09369039ECF7E
:10287000FD01DC01C0CF13821282D7CFB0E0A0E00F
:10288000E4E4F4E10C94DE128C01009751F4CB01E6
:102890000E9419138C01C801CDB7DEB7E0E10C949A
:1028A000FA12FC01E60FF71F9C0122503109E217D2
:1028B000F30708F49DC0D901CD91DC911197C6179B
:1028C000D70798F0C530D10530F3CE0104978617AD
:1028D000970708F3C61BD70B2297C193D1936D932B
:1028E0007C93CF010E94B513D6CF5B01AC1ABD0A11
:1028F0004C018C0E9D1EA0916903B0916A03512C6E
:10290000412CF12CE12C109731F5809167039091C7
:1029100068038815990509F05CC04616570608F04B
:1029200058C08091000190910101009741F48DB74A
:102930009EB74091040150910501841B950BE81747
:10294000F90708F055C0F0936803E0936703F901B5
:1029500071836083A0CF8D919C91119712966C909A
:10296000129713967C901397A815B90559F56C0129
:1029700042E0C40ED11CCA14DB0420F1AC014A1998
:102980005B09DA011296159780F062827382518397
:102990004083D9016D937C93E114F10471F0D70168
:1029A0001396FC93EE93129776CF22968C0F9D1F71
:1029B000F90191838083F301EFCFF0936A03E093F1
:1029C000690369CF4816590608F42C017D01D3012B
:1029D0009ACFCB010E9419137C01009749F0AE01F8
:1029E000B8010E94FB14C8010E94B513870153CFA0
:1029F00010E000E050CFFB01DC0102C001900D921D
:102A000041505040D8F70895FB01DC0101900D9230
:0A2A10000020E1F70895F894FFCFCD
:102A1A0000006B03800000000000CA012901570171
:102A2A001702880166017A0100000000A3057605F5
:102A3A00D20556016F055C054D0500000000DF0553
:102A4A00EE092A089E06DA05A1079606DA050607A0
:102A5A008D06D5050D0A004661696C656420746FA0
:102A6A0020696E697469616C697A6520494D5521DE
:102A7A0000564D4450565F317C315F564D44505696
:102A8A000A00564D4450525F00564D4450455F006F
:102A9A003A323A007C005F564D4450450054455343
:102AAA00543100583A2000593A20005A3A2000007E
:107E0000112484B714BE81FFF0D085E080938100F7
:107E100082E08093C00088E18093C10086E0809377
:107E2000C20080E18093C4008EE0C9D0259A86E02C
:107E300020E33CEF91E0309385002093840096BBD3
:107E4000B09BFECF1D9AA8958150A9F7CC24DD24C4
:107E500088248394B5E0AB2EA1E19A2EF3E0BF2EE7
:107E6000A2D0813461F49FD0082FAFD0023811F036
:107E7000013811F484E001C083E08DD089C08234E0
:107E800011F484E103C0853419F485E0A6D080C0E4
:107E9000853579F488D0E82EFF2485D0082F10E0AE
:107EA000102F00270E291F29000F111F8ED06801E7
:107EB0006FC0863521F484E090D080E0DECF843638
:107EC00009F040C070D06FD0082F6DD080E0C81688
:107ED00080E7D80618F4F601B7BEE895C0E0D1E017
:107EE00062D089930C17E1F7F0E0CF16F0E7DF06D8
:107EF00018F0F601B7BEE89568D007B600FCFDCFD4
:107F0000A601A0E0B1E02C9130E011968C91119780
:107F100090E0982F8827822B932B1296FA010C0160
:107F200087BEE89511244E5F5F4FF1E0A038BF0790
:107F300051F7F601A7BEE89507B600FCFDCF97BE46
:107F4000E89526C08437B1F42ED02DD0F82E2BD052
:107F50003CD0F601EF2C8F010F5F1F4F84911BD097
:107F6000EA94F801C1F70894C11CD11CFA94CF0C13
:107F7000D11C0EC0853739F428D08EE10CD085E9AC
:107F80000AD08FE07ACF813511F488E018D01DD067
:107F900080E101D065CF982F8091C00085FFFCCF94
:107FA0009093C60008958091C00087FFFCCF809118
:107FB000C00084FD01C0A8958091C6000895E0E648
:107FC000F0E098E1908380830895EDDF803219F02E
:107FD00088E0F5DFFFCF84E1DECF1F93182FE3DFCA
:107FE0001150E9F7F2DF1F91089580E0E8DFEE27F6
:047FF000FF270994CA
:027FFE00040479
:0400000300007E007B
:00000001FF