:020000021000EC
:1000000000000420E196010019970100457A0100E3
:100010001D970100517A0100577A0100000000008D
:100020000000000000000000000000003527010073
:100030002597010000000000CD270100DD27010009
:1000400049D30100E54B01002B9701002B970100DC
:100050002B9701002B9701002B9701002B97010094
:100060002B9701002B9701002B9701002B97010084
:100070002B970100DDD401002B970100FD4B0100FF
:100080002B9701002B9701002B9701002B97010064
:100090002B9701002B9701002B9701002B97010054
:1000A0002B9701002B9701002B9701002B97010044
:1000B0002B9701002B9701000000000000000000BA
:1000C0002B9701002B9701002B9701002B97010024
:1000D0002B9701002B9701002B9701002B97010014
:1000E0002B9701002B9701002B97010000000000C7
:1000F000000000002B970100000000002B9701007A
:1001000010B5054C237833B9044B13B10448AFF351
:1001100000800123237010BD0010002000000000AB
:100120005C5B020008B5034B1BB103490348AFF306
:10013000008008BD00000000041000205C5B02008D
:10014000154B002B08BF134B9D46A3F5803A0021A9
:100150008B460F461348144A121A10F001FA0F4B3F
:10016000002B00D098470E4B002B00D09847002062
:10017000002104000D000D48002802D00C4808F0B2
:10018000F9F90FF0FFFC2000290004F061FB08F0F2
:10019000EEF900BF0000080000000420000000008D
:1001A000AD4701000010002090B8002075850100C7
:1001B00000000000014800F065B800BF1C100020DE
:1001C00008B54FF416510D4800F0A8FD642000F06A
:1001D000F3FF0B49094801F013F90A49074801F0F8
:1001E0000FF9094800F052F828B108490348BDE862
:1001F000084001F005B90649F8E700BF581B002088
:10020000403B02004C3B02001C100020603B0200FF
:10021000703B020008B5164800F038F8144800F0AA
:1002200063F8134800F02FF80146114800F034F845
:10023000104800F0D3FE002819DD0E4800F032FF10
:1002400032280CD0332810D0312810D10A4909485F
:1002500001F0D6F80648BDE8084000F02DB807497F
:100260000448BDE8084001F0CBB80549F8E708BDEF
:100270001C100020581B0020103B0200203B0200F5
:10028000303B02007047006870470000014800F0F2
:10029000E4B900BF2C140020064B1A68B2F5807F29
:1002A00004BF00221A601A6800EB82000132C160AC
:1002B0001A60704728140020F7B50A4E00F10C05AB
:1002C00000F20C44022755F8040B0EF03DF900979C
:1002D00002460B46304601F083F9A542F3D103B044
:1002E000F0BD00BF581B00201FB50446084800F0B1
:1002F00045F858B103AB02AA01A9054800F094F8EB
:10030000019B2360029B6360039BA36004B010BD4C
:100310002C14002070470000004870470000EE4297
:10032000004870470000A04110B50C21044608F0B9
:1003300053FB204610BD70B5044680680368DB6A35
:1003400016460D469847A068036831461B689847D3
:10035000A06803685B6B984768B9A06803680122CE
:10036000DB6B29469847012805D1A0680368BDE8E2
:1003700070405B6918474FF0FF3070BD08B50379D6
:1003800043B12F226B21FFF7D6FF10F03F0018BFBB
:10039000012008BD17226B21FFF7CDFF00F00100FF
:1003A000F7E708B517226B21FFF7C5FFC0F3400040
:1003B00008BD08B527221E21FFF7BDFFC0F3C0000E
:1003C00008BD2DE9F04105468068069F1E4603687A
:1003D000DB6A144688469847A868036844F08001A1
:1003E0009B6C9847A868036800211B6B98470446DC
:1003F00088B9A86803683A46DB6B41469847B8421B
:100400000DD13418A6420CD0A86803685B699847E0
:1004100006F8010BF6E74FF0FF30BDE8F08120460B
:10042000FBE70120F9E700007FB51C4606230E46D6
:1004300015460093282202AB6B21FFF7C2FF28B9B3
:100440001B4B33602B60236004B070BDBDF9080006
:100450000EF068F80022174B0EF0CEF800224FF095
:100460007C530EF0C9F80EF097FB3060BDF90A001E
:100470000EF058F800220F4B0EF0BEF800224FF09D
:100480007C530EF0B9F80EF087FB2860BDF90C0024
:100490000EF048F80022074B0EF0AEF800224FF0A5
:1004A0007C530EF0A9F80EF077FB20600120CBE71B
:1004B0000000C07F000010407FB51C4606230E469A
:1004C00015460093182202AB6B21FFF77AFF28B97B
:1004D0001B4B33602B60236004B070BDBDF9080076
:1004E0000EF020F80022174B0EF086F800224FF095
:1004F0007C530EF081F80EF04FFB3060BDF90A001E
:100500000EF010F800220F4B0EF076F800224FF09C
:100510007C530EF071F80EF03FFB2860BDF90C0023
:100520000EF000F80022074B0EF066F800224FF0A4
:100530007C530EF061F80EF02FFB20600120CBE71A
:100540000000C07F00409F407FB51C4606230E463A
:1005500015460093282202AB1E21FFF732FF28B96F
:10056000214B33602B60236004B070BDBDF90800DF
:100570000DF0D8FF00221D4B0EF03EF800221C4B60
:100580000EF03AF800224FF07C530EF035F80EF0E2
:1005900003FB3060BDF90A000DF0C4FF0022134BCD
:1005A0000EF02AF80022124B0EF026F800224FF02F
:1005B0007C530EF021F80EF0EFFA2860BDF90C0024
:1005C0000DF0B0FF0022094B0EF016F80022084B88
:1005D0000EF012F800224FF07C530EF00DF80EF0E2
:1005E000DBFA20600120BFE70000C07F0000104060
:1005F0000000594070B5044680681D460368DB6AF8
:1006000016469847A068036831461B689847A0685B
:10061000036829461A689047A06803685B6B98478F
:10062000B0FA80F0400970BD10B5032304462222C1
:100630001E21FFF7DFFF002310226B212046FFF76A
:10064000D9FF0023204620226B21FFF7D3FFA068AB
:100650000368BDE810405B6A184710B5044680681F
:100660000368DB699847052322226B212046FFF7A8
:10067000C1FF0C2321221E212046FFF7BBFF0A20C9
:1006800000F09AFD0F226B212046FFF754FE6828E8
:1006900004D02046FFF7C8FF002010BD0F221E2106
:1006A0002046FFF748FE3D28F3D1782310226B2126
:1006B0002046FFF79FFF702320226B212046FFF783
:1006C00099FFB42320221E212046FFF793FF002329
:1006D00021221E212046FFF78DFF002322221E210A
:1006E0002046FFF787FF0120D7E700000548064BAB
:1006F000036000230371054A054B0649836007F038
:1007000034BF00BF2C140020843B020000020020F4
:100710002C17002015030100002070477047036864
:10072000C9B21B68184749000023C161C0F82C32C8
:100730007047036801211B6B184710B403689C6B5A
:100740000123A4465DF8044B6047D0F82C32B3F582
:10075000807F1FBF5A1CC0F82C22C01880F82C11B3
:1007600014BF012000207047D0F82801704770475F
:10077000C0F830127047C0F8341270470346D0F802
:100780002801A8B1D3F8282182B1D3F824211A4432
:1007900092F82000D3F824210132D2B2C3F82421E8
:1007A000D3F82821013AC3F8282170474FF0FF30D1
:1007B0007047D0F828312BB1D0F82431184490F884
:1007C000200070474FF0FF307047000010B5044B19
:1007D0000360044600F50E7008F03AFC204610BD98
:1007E000C43B020038B50446802008F0CDF894F9E7
:1007F000192094F91810054604F0BEFB656138BD58
:100800007FB5044648200E4608F0BEF894F919203A
:1008100094F91810054604F0E9FB7100284625619B
:1008200004F000FC094B0393094B01936946002334
:1008300004F50E700293009408F084FB039B13B13F
:100840009B686846984704B070BD00BFB03B02008B
:100850007F0901000B6803604B6843608B6883600D
:10086000704738B5D0F82C3214461A44B2F5807F60
:1008700088BFC3F58074054600F59670224618447B
:100880000FF070FDD5F82C322344C5F82C322046E9
:1008900038BD10B50446406910B10368DB6898475D
:1008A000206920B14821BDE8104008F095B810BD7E
:1008B00038B5044640690D4608B104F067FA20696E
:1008C00020B12946BDE8384004F0AABB38BD1FB5A9
:1008D0000246D0F82C32D469406981F001010091C0
:1008E0003BB9012303AA214604F09FFAC0B204B029
:1008F00010BD02F59672214604F076FA002814BF66
:1009000002200020F3E770B5C2B083F0010300932A
:1009100002AE04461546134649003246406904F0CB
:1009200084FAC8B9A84218D0D4F82831B3F5807F2A
:1009300010D0D4F82031325C234483F82020D4F83E
:1009400020310133DBB2C4F82031D4F8283101332F
:10095000C4F828310130E5E70025284642B070BDD3
:1009600010B4D0E9013401686210E40701EB020021
:1009700048BF8A585DF8044B48BFD358184730B574
:10098000044693B00025206904F053FB0328FAD8ED
:10099000DFE800F04C021414D4F8343203B1984765
:1009A000D4F82C2232B104F59671206904F045FB8D
:1009B000C4F82C52206904F048FBE4E7C4F8205145
:1009C0004822C4F824516946C4F82851206904F02B
:1009D00032FB002282421DDAD4F82831B3F5807F41
:1009E00018D0D4F82831B3F5807F11D0D4F8203155
:1009F0001DF80210234483F82010D4F8203101336D
:100A0000DBB2C4F82031D4F828310133C4F82831DE
:100A10000132DFE7D4F82831002BCBDDD4F83032B7
:100A2000002BC7D0D4F828019847C3E700F0D4FBC7
:100A3000A9E7000010B5044600F08DF884423BBFE2
:100A40002401024B4FF0FF30185710BD0402002064
:100A500073B54FF47A730025C0E90153194B036055
:100A60000446C0E904550176427629464FF4807267
:100A700020300FF075FD144BC4F82051C4F8383203
:100A80002946C4F82451C4F82C52C4F82851C4F89B
:100A90003052C4F83452C4F8485204F51E7008F0BD
:100AA000ABF904F50E7604F5237008F043F93046EF
:100AB00000952B464FF48052182108F037FA204653
:100AC00002B070BDC43B020014550200F8B51220FC
:100AD000FFF7B0FF05461320FFF7ACFF104C114E97
:100AE0002946114D02462046FFF7B2FF32462946FD
:100AF000204607F03AFD1E20FFF79CFF07461F2007
:100B0000FFF798FF094C024639462046FFF7A0FF41
:100B1000324629462046BDE8F84007F026BD00BF12
:100B20003814002000020020CD0701002C170020FF
:100B300030B5A1F11004002500F00F02D3B2092A4C
:100B4000CCBF373330338B73CD7302398C424FEACD
:100B50001010F1D130BD22207047000030B50121C6
:100B600085B0192000F084FB0121192000F0BCFBA6
:100B70004FF080430022C3F85C2503F588334FF41F
:100B80008032C3F848230121C3F80823212000F054
:100B90006FFB0121202000F06BFB0121212000F0E0
:100BA000A3FB0121202000F09FFB104B01221A60C3
:100BB0000F4A1368002BFCD00E4B0024C3F80045ED
:100BC000C3F800450C4B0FCB6D4685E80F0023465C
:100BD00020464FF0FF3155F823200133042BC2F893
:100BE0000005C2F86015F6D105B030BD0420004004
:100BF0004421004000200040143C020038B54FF072
:100C0000805504462146D5F8A800FFF791FFD5F896
:100C1000A40004F11001FFF78BFF202038BD000075
:100C200072B64FF08043B022C3F81C25BFF34F8F3C
:100C30000549064BCA6802F4E0621343CB60BFF378
:100C40004F8F00BFFDE700BF00ED00E00400FA0594
:100C500008B50EF0C1F9C3680BB19B68184770471F
:100C600010B500F0ABFAFFF779FF00F09FFE00F03F
:100C700093FE4FF4E1310648064C01F0BBFCFFF750
:100C80009FFAFFF7C7FA002CFBD0AFF30080F8E71C
:100C90005C22002000000000704770B590F83431ED
:100CA00005461446F3B90368DB69984704F470639A
:100CB000B3F5407F04F0F0030CBF0721082104F0D6
:100CC0000F02302B0CBF02230123012A08D0901EF3
:100CD00042424241A869BDE87040006804F092BAFF
:100CE0000222F7E770BD38B590F834510446A5B933
:100CF00083695BB1186848B10368DB689847A369EA
:100D00001D600421A06907F067FEA5610023C4F8F7
:100D10002431C4F82831C4F82C3138BD7FB590F89F
:100D2000343104460D46002B34D1866926B904209F
:100D300007F02AFEA0610660A369186860BB4FF443
:100D4000807007F021FE2B4694F9212094F92010A1
:100D5000064604F017FDA3691E6094F92220531C77
:100D600006D0A06994F923300068032104F01AFD2D
:100D7000A369186870B10A4B03930022094B0193D1
:100D800069460094029204F076FA039B13B19B68C3
:100D90006846984704B070BD294604F01FFADCE7A6
:100DA000243C0200F50D010010B4D0E901340168C3
:100DB0006210E40701EB020048BF8A585DF8044B5B
:100DC00048BFD3581847000008B590F834313BB1FC
:100DD000012000F0F1F90648BDE8084001F07CBCB4
:100DE00082691AB11368003318BF0123184608BD81
:100DF0005C22002013B590F83431044623BBA3696C
:100E0000186804F016FAF8B1A3691868036801229B
:100E10005B690DF107019847D4F82C31B3F5807F59
:100E2000EDD0D4F824319DF80720234483F8242002
:100E3000D4F824310133DBB2C4F82431D4F82C3196
:100E40000133C4F82C31DAE702B010BD70B50446A6
:100E50000D4601F041FC30B12368294620461B6C49
:100E6000BDE87040184770BDA0F5A070EEE7000027
:100E700013B590F834318DF8071004462BB1C9B280
:100E80000B48FFF7E3FF02B010BDA369186804F038
:100E9000E1F90028F9D0A3691868036801221B69E9
:100EA0000DF107019847013018BF0120EBE700BFA3
:100EB0005C2200202DE9F04107468846164601F0E5
:100EC0000BFC70B10024A6420CD9351B402D28BF65
:100ED000402508EB04012A46384601F0E3F82C448B
:100EE000F1E704462046BDE8F081A0F5A070E1E7F7
:100EF00070B590F8343105460E4614462BB10F48B4
:100F0000FFF7D8FF0446204670BDAB69186804F0AF
:100F1000A1F90028F9D0AB691868D0F8FC3001219C
:100F20001B6BFC309847AB691868036822461B6945
:100F300031469847013008BF0024E4E75C220020D6
:100F400030B50446C3B001F041FBD4F85832C3F5C4
:100F5000807398420546C4BFD4F85852C5F58075D1
:100F60002A4601AB02A9204601F086F9019902AB9D
:100F70006D1A00221D44D4F85832B3F5807F19D081
:100F80008A4217D0D4F85832B3F5807F10D0D4F805
:100F90005032A85C234483F85001D4F85032013316
:100FA000DBB2C4F85032D4F858320133C4F85832A6
:100FB0000132E0E743B030BD38B5044600F01AFD19
:100FC0002046FFF7BDFFD4F85852204600F01AFD26
:100FD000284638BDA0F5A070EEE7000008B590F8EF
:100FE00034311BB10348FFF7E7FF08BDD0F82C01EF
:100FF000FBE700BF5C22002038B5044600F0FAFC95
:101000002046FFF79DFFD4F858324BB1D4F8543244
:10101000234493F85051204600F0F4FC284638BD94
:101020004FF0FF35F7E7A0F5A070E5E708B590F8B9
:1010300034311BB10748FFF7DFFF08BDD0F82C3172
:101040002BB1D0F82831184490F82400F5E74FF080
:10105000FF30F2E75C22002038B5044600F0CAFCFD
:101060002046FFF76DFFD4F85832A3B1D4F85432BC
:10107000234493F85051D4F854320133DBB2C4F80E
:101080005432D4F85832013BC4F85832204600F0AC
:10109000B9FC284638BD4FF0FF35F7E7A0F5A07042
:1010A000DAE7000008B590F834311BB10D48FFF7BE
:1010B000D3FF08BDD0F82C318BB1D0F82831D0F84F
:1010C000282103440132D2B293F82430C0F82821F9
:1010D000D0F82C21013AC0F82C211846E9E74FF04E
:1010E000FF30E6E75C22002008B54FF48072002153
:1010F0000FF036FA0022C0F80021C0F80421C0F831
:10110000082108BD2DE9F047194C1A4F276000252A
:101110004FF47A78C4E90158202604F12400C4E988
:101120000565E5614FF00109FFF7DEFF284684F809
:101130003491FFF77FFC82464846FFF77BFC0E4C5C
:10114000FF2384F82100C4E9015804F1240027603A
:10115000C4E90565E56184F820A084F8223084F8AC
:101160002330FFF7C1FF84F83451BDE8F08700BF9A
:10117000581B0020383C0200201A002010B50446FD
:1011800004F0ADF9204610BD10B5044604F0A7F9EF
:10119000204610BD07B50749684604F0DDF94FF455
:1011A0007A720023DDE900010DF046FD03B05DF821
:1011B00004FB00BF901C002007F04EBE08B5044899
:1011C00004F097F90348BDE8084004F092B900BF65
:1011D000A81C0020901C002007F04CBE38B50A4C1B
:1011E0000A4D204604F0F5F92046094C09492A46E3
:1011F00007F0BBF9204604F0F7F92A4620460649D5
:10120000BDE8384007F0B1B9A81C0020000200205A
:10121000901C0020891101007D11010008B590F992
:1012200000305A1C04D121220E490F4806F0BCFDA3
:10123000012259B11F2B86BF03F01F030B494FF04A
:10124000A04102FA03F3C1F8083508BD1F2B86BF81
:1012500003F01F0305494FF0A04102FA03F3C1F860
:101260000C35F2E7643C0200F93C02000003005038
:101270002DE9F0411B4D0601AB198046DC680F4695
:101280009CB9FFF768FC80454FF0010034BF15F9A9
:1012900006804FF0FF3807F077FB35440023044603
:1012A0000370414605F06BFEEC60012F10D006D3B1
:1012B000022F12D0204603F0F8FC012103E0204663
:1012C00003F0F3FC00212046BDE8F04103F0FABC36
:1012D0002046BDE8F04103F0DBBC204603F0E5FC0E
:1012E0000321F0E7040200202DE9F3410746884678
:1012F000FFF731FC874221D2124C3E01A319DD6871
:10130000ADB9FFF728FC87424FF0010034BFA75763
:101310004FF0FF3707F038FB3444002305460370D5
:101320000122CDF80080394605F02CFEE5604146EB
:10133000284602B0BDE8F041FFF770BF02B0BDE83B
:10134000F08100BF040200202DE9F84306460D4657
:10135000071D00F10709002417F8011B0A2228467F
:1013600000F082F82E218046284600F040F84F45D4
:1013700040440444F0D10A22F179284600F074F880
:101380002044BDE8F8830000024B034A1A600022A3
:101390005A607047C01C00201C3D02002DE9F0413E
:1013A00006460D4601EB02080C464445A4EB050732
:1013B00007D0336814F8011B1B6830469847002893
:1013C000F3D13846BDE8F08170B5044608460D46B5
:1013D0000FF096FC23680246294620465B68BDE86C
:1013E0007040184709B1FFF7EFBF08467047036820
:1013F0001B6818470149FFF7E7BF00BF27520200EB
:1014000038B50546FFF7EEFF04462846FFF7F2FF22
:10141000204438BD70B58AB00D460AA9002301F8F2
:10142000043D012A98BF0A22B5FBF2F402FB1456D0
:10143000F3B2092E94BF30333733DBB2254601F8BF
:10144000013D002CF0D1FFF7CDFF0AB070BD10B404
:101450002AB903685DF8044B1B68C9B21847D2B2B9
:101460005DF8044BFFF7D6BFFFF7F1BF2DE9F84F4A
:101470000A9E0746002E10461946B8BF022614469B
:101480001D460DF053FB28B14C493846BDE8F84FD6
:10149000FFF79ABF25F000494FF0FF32484B204636
:1014A00049460DF043FB48B94FF0FF32444B20460C
:1014B00049460DF01DFB08B94249E6E74FF060428E
:1014C000414B204629460DF027FB08B13F49DCE798
:1014D0004FF060423E4B204629460DF0FFFA0028AF
:1014E000F4D100220023204629460DF0F7FAD0B1AE
:1014F0002D213846FFF77BFF05F1004382461D464C
:101500003449DFF8D8904FF0000B00204FF000086E
:101510005FFA8BF3B3420BF1010B06DA42464B46FE
:101520000DF094F9F4E78246EAE702460B462046BE
:1015300029460CF0ABFE0D4604460DF00DFB0A22C9
:10154000014680463846FFF765FF82449EB3404619
:101550000CF0D8FF02460B46204629460CF094FEBC
:1015600004460D4638461C49DFF87090FFF72CFF03
:101570004FF00008824416F1FF361CD34B4642461A
:10158000204629460DF038F80D4604460DF0E4FAE1
:101590000A22014683463846FFF73CFF82445846FC
:1015A0000CF0B0FF02460B46204629460CF06CFEBC
:1015B00004460D46DFE75046BDE8F88F203D0200A7
:1015C000FFFFEF7F243D0200FFFFEF41283D0200B7
:1015D000FFFFEFC10000E03F5E3B0200000024403F
:1015E00037B5069900910546FFF740FF04462846A7
:1015F000FFF700FF204403B030BD00207047704764
:10160000704710B5D0F88C452CB1236820465B6834
:101610009847A468F8E710BD38B5D0F88C450D465A
:1016200034B1236820469B6829469847A468F7E7A9
:1016300038BD000000487047C03D020010B5054BA2
:101640000360044605F0C3FB204605F0D9FB2046A5
:1016500010BD00BF403D020010B50446FFF7EEFF8D
:1016600020464FF4B26107F0B7F9204610BDF7B538
:10167000D0F88C4505460E460023A4B123683146B8
:10168000DF680DF1030201AB2046B8479DF8031057
:101690000429034605D0019A284604F0F5FD03B05D
:1016A000F0BDA468E9E7019A9DF80310F4E770B56E
:1016B00005460E4622B10021BDE8704004F0E0BBB3
:1016C000D0F88C455CB1236800221B693146204666
:1016D000984710B101212846EEE7A468F2E72146B9
:1016E000F9E770B5D0F88C450E46054600213CB1AF
:1016F0002368314620465B699847A4680146F6E7AF
:101700002846BDE8704004F0BBBCF8B5D0F88C4565
:1017100005460E4617463CB1236820469B693A466B
:1017200031469847A468F6E728460121BDE8F8400D
:1017300004F004BD70B5002186B0044604F0A0FF9B
:101740000023ADF8063023898DF810301B0AA188DC
:10175000E2888DF811304FF4897540F20123ADF81D
:101760000450ADF81230022540F20313EF268DF835
:1017700007508DF809508DF80C100125090A8DF8D5
:101780000E20ADF81430120A04F10A038DF8086037
:101790008DF80A508DF80B008DF80D108DF80F2084
:1017A00001AD05AE1C462A4603CAB2421860596014
:1017B000154603F10803F6D112881A80204606B0B8
:1017C00070BDF8B5002406460D46274630460FF09A
:1017D00097FAA04207D9335D05F8143005EB4403AE
:1017E00001345F70F2E7400000F0FE00F8BD38B54C
:1017F000D0F88C55044635B12B6828461B6A9847AB
:1018000010B9AD68F7E7284640F20233A4F848352E
:1018100004F24A51FFF7D5FF94F84835184484F88C
:10182000480504F5A96038BD40F2023310B500F256
:101830000A510446A0F808350548FFF7C2FF94F89E
:101840000835184484F8080504F5A16010BD00BFF0
:101850002C3D020040F2023310B50446A0F8C83413
:1018600000F2CA40FFF7CAF994F8C834184484F863
:10187000C80404F5996010BD2DE9FF4100238DF8DF
:101880000A3090F888351B4A8DF808300123019200
:101890008DF809303222C0238DF80B308DF80C20E2
:1018A00001AB044600F54E7803CBC4F83803C8F802
:1018B000041088F80820D4F88C6509258EB13368A7
:1018C00000211B6830469847478805F54E73093F4D
:1018D00000F109013A46E0180EF044FD3D44B668B7
:1018E000ECE784F83A5340462D1284F83B5304B099
:1018F000BDE8F0810902FFFF73B504460D461646A8
:1019000007F09EFD4FF480730093014633462A464C
:10191000204604F07DFE024B2360204602B070BDDD
:10192000403D020010B5D0F88C350446A3B9C0F88C
:101930008C1594F888350B7194F888354A791344DE
:1019400084F888350B6808465B6A984723891844F1
:101950002081012010BD13469A68002AFBD19960AE
:10196000E7E71FB5044604F04DFE0146684603F064
:10197000D5FF4021684604F040F8D4F88C4534B1D6
:1019800023682046DB6969469847A468F7E76846FC
:1019900003F0CBFF04B010BD10B50446FFF7E1FF24
:1019A0002046BDE8104004F09DBD000010B50D4C70
:1019B0002378BFF35B8FDB0712D4204606F0E8FDE7
:1019C00070B148F25A0242F241310748FFF794FFE2
:1019D000204606F0FFFD054A0549034806F0C5FD0F
:1019E000014810BDC81C0020CC1C002000020020B3
:1019F0003D16010010B5FFF7D9FF0368BDE81040A0
:101A00005B6F184710B5FFF7D1FF0368BDE81040C2
:101A10009B6F184710B5FFF7C9FF0368BDE810407A
:101A2000DB6F184704F026B904F0E8B804F012B9E7
:101A3000704770477047436A93F878007047D0F852
:101A4000240170470120704700487047283F02007A
:101A50002DE9F04F044697B00F464B22002103A812
:101A60000EF07EFDD4F82431267994F80EA094F877
:101A70000C90002B06F10105637B019314BF052038
:101A80000020EDB2002F40F0978040F20923ADF81E
:101A90000C304FF48173ADF8103080238DF8133083
:101AA00032238DF8143008238DF815300B230121D3
:101AB0008DF816308DF8250040F2022342F20540E1
:101AC0004FF0240C4FF0090E04274B22ADF81830CC
:101AD0008DF8211002238DF82410ADF826004FF068
:101AE000100805208DF82A108DF82D108DF82F1074
:101AF0004FF0030B06218DF80E208DF817608DF83E
:101B00001A308DF81DE08DF81F608DF822308DF8A9
:101B100023308DF82B008DF82CC08DF831C08DF856
:101B200032308DF833108DF834008DF835C08DF8D3
:101B30001E708DF829808DF82EB08DF830708DF8DC
:101B4000361007218DF839108DF8491044F2020142
:101B5000ADF84C1040F20751ADF850101D349DF80F
:101B600004108DF837608DF838508DF83A008DF8F4
:101B700042508DF84A008DF852108DF8533044F2DF
:101B80000306402340F6022503A920468DF83BA01A
:101B9000ADF83C608DF83F808DF840E08DF84170E5
:101BA000ADF844508DF84B908DF854300EF0DAFBC0
:101BB000204617B0BDE8F08F0020FAE738B505469B
:101BC0000A4B45F8D03B0446FFF7F0FE05F0FFF85E
:101BD000284603F0ADFF04F17C0003F0A9FF04F1F7
:101BE000700003F0A5FF204638BD00BFE83E0200AC
:101BF00010B50446FFF7E2FF20464FF4947106F05B
:101C0000EBFE204610BDFFF705BF000010B5034BEB
:101C10000360044603F00AFE204610BD083E0200A1
:101C200010B50446FFF7F2FF2046282106F0D4FE47
:101C3000204610BD10B5034B0360044603F0F6FDCB
:101C4000204610BDD83D020010B50446FFF7F2FF54
:101C50002046342106F0C0FE204610BD10B5034BCF
:101C60000360044603F0E2FD204610BDF03D020093
:101C700010B50446FFF7F2FF2046382106F0ACFE0F
:101C8000204610BD38B51C4B0D461968C0F80F1022
:101C900099889B7943750446A0F8131040220221CD
:101CA000284603F0A0FE402220730221284603F0BC
:101CB0009FFE402260730321284603F094FEA07328
:101CC000284603F033FE20B9AF220C490C4806F039
:101CD0006BF8002304F18502C4E9322304F1D90230
:101CE00084F8783084F8843084F8D830C4F81C2123
:101CF000C4F8203138BD00BF243E0200603E02001F
:101D0000CE3E02002DE9F34104460E461546FFF78C
:101D100081FEF28823799A4237D1002D35D1777828
:101D2000012F2ED1F378202B27D13289072A24D1F5
:101D300004F10F0804F11605294640460EF0E0FABA
:101D4000D0B1D4F81630C4F80F30207CE17B638B1F
:101D5000A4F8133001EB0021607CE57C237F009523
:101D600001EB00412568A07C637501EB0061237DD8
:101D7000627D6D6B2046A8473D46F378212B08BF56
:101D80000125284602B0BDE8F0810025F9E710B52D
:101D90000446FFF73FFEFFF709FE217B04F0B4FE87
:101DA00004F18503C4F8C8300023C4F8CC3084F8AB
:101DB000843004F17C0003F070FE94F884302BB979
:101DC00023682046DB6BBDE81040184710BD0000BB
:101DD00070B50446FFF71EFED4F820512DB140F235
:101DE000DD120F490F4805F0DFFF04F1D903C4F8F5
:101DF0001C31FFF7DBFD617B04F0E4FD84F8D85073
:101E0000C4F8200104F1D00003F047FE94F8D83064
:101E10002BB9236820469B6BBDE87040184770BD06
:101E2000603E0200303E020010B4D0E90134016887
:101E30006210E40701EB020048BF8A585DF8044BCA
:101E400048BFD35818470000F0B5044687B002AD2C
:101E5000FFF7E0FD0026FFF7A9FDA17B0095032316
:101E60004022059604F058FB2846FEF7F4FEFFF7E3
:101E70009DFD164B217B164F00954022CDE9033680
:101E800002230597029404F047FB2846FEF7E3FE81
:101E9000FFF78CFD0F4B617B00954022CDE90336A7
:101EA00002230597029404F037FB2846FEF7D3FE81
:101EB000FFF77CFD4023D4F81C21617B04F024FD56
:101EC000012084F8D80007B0F0BD00BF8F1D0100CD
:101ED000183E0200D11D010038B5022343710023D2
:101EE00083600C4B044640F8703B154603F0C8FD78
:101EF00004F17C0003F0C4FD04F1D00003F0C0FD48
:101F0000C4F82451FFF752FD2146FFF70BFD204690
:101F100038BD00BFE83E020070B504460D46FFF72D
:101F200079FD84F87850002D3ED194F8843033B197
:101F3000FFF73CFD217B04F0BFFB84F8845004F1E3
:101F4000850304F17C0600253046C4F8C830C4F887
:101F5000CC5003F0A2FD304603F098FD28B9154996
:101F600015484FF4A27205F01FFF94F8D83033B132
:101F7000FFF71CFD217B04F09FFB84F8D85004F18F
:101F8000D903C4F81C3104F1D00500232846C4F855
:101F9000203103F082FD284603F078FD20B94FF48C
:101FA000A77204490548DEE704F17000BDE87040FF
:101FB00003F073BD603E02003E3E02004F3E020051
:101FC00010B50446FFF726FD20460021BDE810406D
:101FD000FFF7A2BF38B50D460446FFF71BFD042DE1
:101FE00005D020460021BDE83840FFF795BF38BD39
:101FF000F8B5164604460D461F46FFF70BFD0423B1
:102000003370EA8823799A4225D16978012922D14F
:10201000EA78212A08D0222A0BD0202A4FF000008B
:102020001BD13070163401E031700F343C60072052
:10203000F8BDAB8813F0010308BF19462046FFF72F
:102040006BFFAB8803F00103E366AB8803F0020388
:10205000A366022333700020EAE703233370E7E727
:1020600010B58AB00446FFF7C5FC684603F0D2FB02
:102070000A4B0093694604F17000099403F025FDB2
:102080002046FFF7BFFC064B00211A68684603F0A4
:102090000BFC6846FFF7BAFD0AB010BD083E02000F
:1020A0002C3E020070B58EB0154604460E46FFF772
:1020B000A1FC01A803F0AEFB0E4B0C9501A9002575
:1020C00004F17C000193CDE90A468DF8345003F009
:1020D000FCFC2046FFF796FC074B29461A6801A82E
:1020E00003F0E2FB01A89DF83440FFF7A3FD204672
:1020F0000EB070BDD83D02002C3E020010B5044663
:10210000FFF788FC94F884307BB9D4F8CC3063B105
:10211000FFF74CFCD4F8CC30217B04F1850204F0AD
:1021200091FC10B1012384F8843010BD2DE9F843EF
:102130001E460446894690469DF82070FFF75AFCDB
:102140000023336094F87830E3B194F88430CBB94D
:10215000D4F8CC50C5F14005454528BF4546B8F1F7
:10216000000F05D02A464946D4F8C8000EF0FAF808
:10217000D4F8CC302B44C4F8CC30356017B12046AD
:10218000FFF7BCFF2046BDE8F843FFF73BBCF0B5C6
:102190000446406A90F8785085B001262DB984F83D
:1021A00030503546284605B0F0BD04AB002743F853
:1021B000047DD4E90A120096FFF7B8FF0399E36A99
:1021C000A26A5B1A0A44E362A26213B984F830601F
:1021D000E8E7606AFFF792FF3D46E3E72DE9F04349
:1021E0001C4691B0904606468946FFF703FC002C3A
:1021F00008BF01AC4FF00005256002A80CBF012705
:10220000002703F007FB104B029302A906F1D00050
:10221000CDE90D84CDE90B698DF83C708DF83D500A
:1022200003F053FC3046FFF7EDFB084B29461A68D4
:1022300002A803F039FB02A89DF83D40FFF70EFD10
:10224000204611B0BDE8F083F03D02002C3E0200B4
:1022500010B5D0F8203104466BB990F8D83053B996
:10226000FFF7A4FB402304F1D902617B04F04CFB8F
:10227000012384F8D83010BD70B51E4604460023F3
:10228000336094F878300846EBB194F8D830D3B97D
:10229000D4F82051D4F81C11954228BF15462A467F
:1022A0000EF060F83560D4F81C31D4F820212B44AE
:1022B000551BC4F81C31C4F8205125B92046BDE88F
:1022C0007040FFF7C5BF70BD37B50446406A90F84F
:1022D00078502DB984F835500125284603B030BD1B
:1022E00002AB002243F8042DD4E90A12FFF7C4FF21
:1022F0000199A26A0A44A262226B13680B4413601C
:10230000E36A01995B1A94F83410E36209B9126820
:1023100002B91BB9012384F83530DEE7606AFFF7A4
:1023200097FF0025D9E76FF01500704700290CBF13
:102330006FF0180000207047012070476FF0150003
:1023400070476FF015007047112070477047704755
:10235000704703689B6C1847A0F5A070F9E77047B9
:102360007047704770470368184710B5044601204E
:10237000FEF722FF94F8780010BDA0F5A070F4E7F6
:1023800038B54FF0FF320123FF210B480B4D06F00B
:10239000ABFCFEF7FFFE044695F878301BB1012038
:1023A000FEF70AFFF8E7FEF7F5FE001BC728F6D98F
:1023B000BDE83840FEF734BC142500205C22002024
:1023C00007B502AB012243F8041D1946FFF76AFE68
:1023D00018B1019803B05DF804FB4FF0FF30F9E746
:1023E000A0F59470FFF7ECBF07B502A9002301F830
:1023F000013D0122FFF7F2FE20B19DF8070003B076
:102400005DF804FB4FF0FF30F9E7A0F59470FFF79B
:10241000EBBF2DE9F8430446884617461E46089D43
:10242000FFF7F8FAD4F87092B9F1000F04D02B46F8
:10243000324639464046C847C4F86082C4F86472E0
:10244000C4F86862C4F86C52BDE8F88370B50646FB
:10245000FFF7E0FA06F51D740025D6F8B432AB425A
:1024600008D92046103454F8043C1BB11B68984727
:102470000135F2E770BD0000B0F5966F03D1012180
:10248000014806F013BC70471425002010B4D0E9B1
:10249000013401686210E40701EB020048BF8A586A
:1024A0005DF8044B48BFD35818470000114B03F1A7
:1024B000780270B50360C0F8282103F1D802E83330
:1024C0000446C0F82C21C0F8403100F51D7600F517
:1024D0002D75AE4204D0103D2846FEF7BCFBF8E750
:1024E00004F5947005F030F92046FFF767FB2046AD
:1024F00070BD00BF683F0200A0F59470FFF7D6BF23
:10250000A0F59670FFF7D2BF10B50446FFF7CEFFD7
:1025100020464FF42E7106F05FFA204610BDA0F55C
:102520009670FFF7F1BFA0F59470FFF7EDBF0000C4
:10253000F7B5044615461F460E4606F081FFBDF866
:1025400024300193BDF8203000932A463B460146D3
:102550002046FFF7C1FC002104F5947005F0CAF88D
:102560004FF47A73C4F84831174B236003F17802B3
:102570000025C4F8282103F1D802E833C4F82C213F
:10258000C4F84451C4F840314FF48072294604F530
:10259000A8700DF0E5FFC4F85052C4F88052C4F89A
:1025A0005452C4F89052C4F85852C4F8A052C4F817
:1025B000B052C4F8B452C4F8705216B12046FFF7B6
:1025C0004FFD204603B0F0BD683F020038B5054618
:1025D000FFF710FA95F8D8304BB9D5F82041402CC8
:1025E00028BF40242846FFF70DFA204638BD0024B6
:1025F000F8E7000070B5044686B0FFF7FBF92D4BF5
:10260000C4F870322046FFF7FDF92B4B05932B4B96
:1026100003932046002302940493FFF7EBF9D4F8C8
:10262000B452032D13D804EB05166B1C06F51D766A
:10263000C4F8B4323046FEF70EFB04EB0515059BDB
:10264000C5F880321BB15B6802A930469847204626
:10265000FFF7D8F902A8FEF7FEFABC2006F094F9BD
:102660000026174B0360054631460661403006F0F0
:10267000C3FB05F1540006F05DFB124B00934FF4D1
:10268000807233462846182106F050FC0E4B059305
:102690000E4BC4F85C5202A92846CDE902360496D6
:1026A00006F050FC02A8FEF7D6FA2046FEF748FCDA
:1026B00006B070BD79240100403F0200410F0100C7
:1026C00014550200583F02004C3F020081230100D4
:1026D000A0F5A070FFF78EBF90F87800704700005B
:1026E00037B50F4C0F4D204606F0D6FA2A460E4954
:1026F000204605F03AFF0D4C42F212030122CDE9CB
:102700000032002211464FF4F8532046FFF710FF25
:1027100007492A46204603B0BDE8304005F025BFF2
:102720001425002000020020B38C01005C22002050
:10273000AD2401001EF0040F0CBFEFF30880EFF38F
:102740000980816911F8021C91BB01B590E80F1056
:10275000E047BDE800508CE80300244B93E80600F6
:10276000914208BF704741B91EF0100F10D12049A7
:10277000086820F0010008600AE02CE9F00F1EF064
:10278000100F08BF2CED108AC1F838C081F822E084
:102790001A6092F82210906B61F0FF0E1EF0100F7D
:1027A00008BFB0EC108AB0E8F00F80F309887047DA
:1027B000104A13689942FAD801B552F821C00FC8DF
:1027C000E047BDE80050CCF80000704701B501F0CB
:1027D00015FBBDE80140EFF3098CBEE701B501F040
:1027E000D5FABDE80140EFF3098CB6E738040020C4
:1027F00034EF00E03C41020008B5014610B113205F
:1028000001F002FE002008BD08B5EFF305832BB9E7
:10281000EFF3108313B9EFF3118333B16FF00500B9
:1028200000F0D2F96FF0050008BDDFF808C000DF46
:10283000FAE700BFF9270100EFF310832BB9EFF39C
:102840001180003818BF0120704701207047000038
:1028500038B538B3846805686CB114F0030302D14D
:10286000C2680F2A13D86FF00801002002F0C8F8E0
:102870000024204638BDC368002BF4D1104BD3F898
:10288000900088B100F0F4FB0446A0B10123A370CE
:102890000023C4E90233F322094B2270094A656020
:1028A0005A66E6E70546E9E7D3F8800001221021E1
:1028B00000F06AFBE8E76FF0040102F0A1F8D8E746
:1028C00024040020A129010070B5054610B1037849
:1028D000F32B07D028466FF0030102F091F86FF058
:1028E000030070BD836863B1284601F0CDFB002270
:1028F0006FF0020101F078FCA8680028F4D101F023
:1029000047FCAB78002613F001032E700FD0094B63
:10291000D3F89040294624B1204600F0C3FB30464E
:10292000DFE7D3F8800000F064FB2046D9E71846C3
:10293000D7E700BF24040020930710B502F001047C
:1029400022D400F10C0384B153E8000F00EA010225
:102950008A4203D0BFF32F8F002005E020EA010256
:1029600043E8002404B1EFE710BD53E8000F08422C
:1029700003D1BFF32F8F002005E020EA010243E8D6
:10298000002404B1F1E7EFE7C06801EA00031CB1DD
:102990008B4218BF0020E7E7002B08BF0020E3E7C9
:1029A000F8B58468054604B9F8BD94F82320616A37
:1029B000A7682846FFF7C0FF064638B1204601F059
:1029C0006CFB00223146204601F00EFC3C46EAE753
:1029D000F8B50D4617461E46044620B10378F32B82
:1029E00001D1002907DA20466FF0030102F008F850
:1029F0006FF00300F8BDFFF79FFF0028FAD186B102
:102A00003146432001F000FD40B1074B5E6920468E
:102A1000314601F027FB756286F823706FF00100E4
:102A2000E8E76FF00200E5E7240400202DE9F0411B
:102A3000064620B10378F32B01D1002909DA6FF0A3
:102A40000301304601F0DCFF6FF003052846BDE8C6
:102A5000F08100F10C0353E8002F42EA010543E83E
:102A6000005000B1F7E7B4681CB9204601F090FBB4
:102A7000ECE794F82320616AD4F808803046FFF729
:102A80005BFF074678B194F823309B0756BF656A11
:102A9000054620EA0505204601F0FFFA00223946E6
:102AA000204601F0A1FB4446DEE7000008B50246DF
:102AB000EFF3058333B100206FF0050101F0A0FFB3
:102AC000002008BDFFF7B8FE0028F4D1DFF808C0E9
:102AD000104600DFF5E700BF5128010038B5024677
:102AE0000D46EFF305834BB192B96FF00301104629
:102AF00001F086FF6FF00304204638BDFFF79CFE0F
:102B00000028F1D1DFF830C0104600DF0446F3E7BB
:102B10001378F32BE9D1002DE7DB02F10C0353E826
:102B2000001F41EA050443E8004000B1F7E7104602
:102B300001F0ACF9E0E700BF2D2A0100F8B504462A
:102B40000E4617461D46EFF3058343B18CB9204668
:102B50006FF0030101F054FF6FF00300F8BDFFF7C1
:102B60006BFE0028F2D1DFF82CC020462B4600DF98
:102B7000F4E72378F32BEAD1002DE8D1002EE6DB31
:102B80003A4631462046FFF7D7FE002808BF6FF0CF
:102B90000200E3E7D129010008B50246EFF30583FF
:102BA0003BB110466FF0050101F02AFF6FF0050000
:102BB00008BDFFF741FE0028F3D1DFF808C010463A
:102BC00000DFF5E7C92801007047EFF310832BB948
:102BD000EFF31180003818BF0120704701207047C3
:102BE00070B5484C217A012900F08A8031B14FF04C
:102BF000FF3001F0F9FE4FF0FF3070BD424D9C22D6
:102C000004F108000DF0ACFCD5E90B61EB68E3655D
:102C10002B8AA4F854303046AB68236400F09CF94A
:102C200008B1C4F88060D5E90561304600F094F938
:102C300008B9D4F880606667D5E90761304600F0CE
:102C40008BF908B9D4F88060A667D5E909613046E8
:102C500000F082F908B9D4F88060E6676E6B3EB187
:102C6000D6E902233168304600F0E1F9C4F8846007
:102C7000AE6B3EB1D6E902233168304600F0D7F999
:102C8000C4F88860EE6B3EB1D6E902233168304665
:102C900000F0CDF9C4F88C602E6C3EB1D6E9022369
:102CA0003168304600F0C3F9C4F890606E6C3EB1F4
:102CB000D6E902233168304600F0B9F9C4F89460CF
:102CC000AE6C3EB1D6E902233168304600F0AFF970
:102CD000C4F89860EE6C3EB1D6E902233168304604
:102CE00000F0A5F9C4F89C602D6D3DB1D5E9022333
:102CF0002968284600F09BF9C4F8A05001232372EC
:102D000000207AE724040020D440020070B5264D4C
:102D10002B7A012B07D06FF0060001F065FE4FF013
:102D2000FF34204670BD01F061FC10B94FF0FF3058
:102D3000F3E71E4A1E4E1F497068FF2382F82230B7
:102D400092F82230D26863F0FF03DB4314BFB3FA7A
:102D500083F32023C3F12003C2F30222934298BFDE
:102D6000531CFE2202FA03F3104ADBB2D37701F0C0
:102D700097FE04460028D9D101F0E6FE286101F053
:102D8000CFFE0D4801F080F901F0F8F9336813F037
:102D9000010F4FF0020303D083F314882B72C0E7B6
:102DA000032282F31488F9E72404002000ED00E0F8
:102DB000D4400200DD2701004004002010B5134C70
:102DC000237A022B05D06FF0070001F00DFE0020E2
:102DD00010BD01F0ADFE01236372BFF34F8F0C4AAB
:102DE0005168C90042BF4FF000615160A372E36AAD
:102DF0004BB1D869636C1BB11B69984228BF184658
:102E000004232372E4E74FF0FF30F3E724040020AB
:102E100000ED00E0F8B5214C237A042B05463BD1A8
:102E2000E3680344E360E36A53B106460127DA69C5
:102E3000B24225D8DF61B61A01F052F9E36A13BB3A
:102E4000636C4BB101261A69AA421FD81E61236D1B
:102E5000AD1A9847636CE3B902230020237201F096
:102E600097F900236372BFF34F8FA27A22B1A37246
:102E70000B4B4FF080525A60BDE8F84001F050BE55
:102E8000921BDA61DCE7002ED1D1D9E7521B1A611F
:102E9000E2E7002DD7D1DFE7F8BD00BF2404002012
:102EA00000ED00E07047000008B5FFF7FBFFEFF30F
:102EB000058333B16FF0050001F096FD6FF005005A
:102EC00008BDFFF782FE0028F4D1DFF808C000DF5C
:102ED000F6E700BFE12B010008B5EFF3058333B13E
:102EE0006FF0050001F080FD6FF0050008BDFFF7F1
:102EF0006CFE0028F4D1DFF808C000DFF6E700BF61
:102F00000D2D010008B5EFF305832BB16FF005001F
:102F100001F06AFD002008BDFFF757FE0028F5D13B
:102F2000DFF804C000DFF6E7BD2D010008B502465A
:102F3000EFF305832BB1BDE808406FF0050001F009
:102F400053BDFFF742FE0028F5D1DFF808C0104658
:102F500000DF08BD152E010010B598B140EA01034D
:102F600013F007030ED117290AD90160083910227E
:102F70000C1884604260435081684A60C36001233A
:102F8000184610BD0023FBE770B580B399B132F04D
:102F900003032CD10F3121F0070600F1080423466A
:102FA00024685D68E11A25F00305491B8E4204D9A7
:102FB00021680029F3D1084670BD016845680144C5
:102FC0003544456051F8040C0839854288BF4D608E
:102FD0005868324318B95A6003F10801EBE720F052
:102FE000030019181C504A6019600831E3E70021FA
:102FF000E1E710B580B1C1B1A1F1080400F1080307
:103000000022A34209D1596821F003044168091B39
:1030100041603AB95A60012010BD19681A4621B1C1
:103020000B46EEE71B681360F5E70846F4E730B59A
:10303000C0B189B1C2B1CBB10024C0E9014202FBE9
:1030400001F41D190160C36043610561184601392F
:1030500004D1A41A19510121084630BD8518056014
:103060002846F4E70146F7E71146F5E71946F3E786
:1030700010B50346A8B100F1140252E8000F10B9D0
:10308000BFF32F8F04E0016842E8001404B1F4E7B5
:1030900038B1043353E8002F511C43E8001404B145
:1030A000F8E710BD30B5F0B1C3688B421BD8036997
:1030B0008B4218D900F114031A680A60BFF35F8FBE
:1030C00053E8002F0C689442F6D143E8001505B18F
:1030D000F2E7043050E8003F5A1E40E8002101B1F9
:1030E000F8E7002030BD6FF00300FBE7EFF310833B
:1030F0002BB9EFF31180003818BF01207047012071
:103100007047D1E9013223B19A608A681AB15360DD
:103110007047C262F9E70363704700002DE9F84F7A
:103120008846074600B131B96FF00301002001F075
:103130007DFC002477E0CE1C26F003060C36B0FAA6
:1031400080F104D0B6FA86F30B441F2BECDD06FBAE
:1031500007FAF2B19468D2F80090D2E904533CB176
:10316000A10702D1D268332A05D86FF00801DDE744
:10317000D268002AF9D13DB115F0030B01D19A456F
:1031800054D96FF00901D1E7002BFAD11CB19B464D
:103190000CE091461546274BD3F8A000D8B1FFF7B5
:1031A00067FF0446A0B14FF0010B35BB214B002255
:1031B000D86F5146FFF7E8FE0546C0B9BBF1000FD6
:1031C00006D01C4BD3F8A000214658B1FFF76AFF88
:1031D0006FF00401AAE7D3F8800001223421FFF741
:1031E000D3FEDEE7D3F88000FFF703FFF0E7524697
:1031F00000210DF0B5F94BF0020BFA2323700023E8
:10320000C4E90983C4E90B33A36032462B4684F832
:1032100002B0C4F80490394604F10C00FFF707FF30
:10322000044B054A1A672046BDE8F88F002CE4D10C
:10323000B1E700BF24040020C932010010B500F13D
:10324000280353E8002F12B9BFF32F8F04E0511E5B
:1032500043E8001404B1F4E70AB9002010BDC06AC5
:1032600001220028F9D0811CD1E84F3FC1E8442F4A
:1032700004B1F9E7DBB2002BF0D08068F1E7036B13
:1032800030B5E3B1CD780024DA78AA420FD31A46DC
:10329000C1E901248AB19160A4B16160283050E88D
:1032A000003F5A1C40E8002101B1F8E730BD5A68E0
:1032B0001C46002AECD01346E6E7C162ECE7C1E900
:1032C0000133C1620163E9E7F8B5877804468FB33B
:1032D000C568014600272846FFF713FF277005F150
:1032E0000C042046FFF7DEFEAB68002B48D02046DA
:1032F000FFF7BEFE0446002842D0284600F0C4FE78
:103300003A460646394600F06FFF304600F018FF97
:103310006A6A8168064604F10C000DF023F8F9236F
:103320002370A770F368E37021462846BDE8F84093
:10333000FFF7A5BF8568AB68002BF5D05B78832BC2
:10334000F2D1284600F0A0FE3A460646394600F083
:103350004BFF304600F0F4FE06466A6A806804F1CE
:103360000C010CF0FFFFF3680BB1E2781A70002338
:103370002370214605F10C00BDE8F840FFF792BE2E
:10338000F8BD00002DE9F0410C4617469846054669
:1033900018B10378FA2B00D141B928466FF0030128
:1033A00001F044FB6FF00300BDE8F0818368C3B116
:1033B0005B78832B15D100F067FE012206460021C1
:1033C00000F012FF304600F0BBFE06466A6A8068D5
:1033D00021460CF0C7FFF0680028E5D007700020F8
:1033E000E2E705F10C00FFF743FE064670B1214607
:1033F0006A6A0C300CF0B6FF0024F9233370B47005
:10340000F77031462846FFF73AFFE8E7B8F1000FBA
:1034100010D04146932000F0F7FF40B1074B2846FB
:10342000596900F01FFEEFF30983C3E902476FF00B
:103430000100B9E76FF00200B6E700BF24040020E6
:103440002DE9F0410F4615469846044618B1037819
:10345000FA2B00D141B920466FF0030101F0E6FAE2
:103460006FF00300BDE8F081FFF7E8FE0646002894
:103470003AD001462046FFF744FE626A06F10C018D
:1034800038460CF06FFF0DB1F3782B70002504F176
:103490000C07357031463846FFF704FEA3680BB9B8
:1034A0000020DFE73846FFF7E3FD06460028F7D0A7
:1034B000204600F0E9FD29460746012200F094FE6F
:1034C000384600F03DFE626A8168074606F10C004E
:1034D0000CF048FFF9233370B570FB68F370314688
:1034E0002046FFF7CCFEDBE7B8F1000F10D04146D5
:1034F000832000F089FF40B1074B2046596900F056
:10350000B1FDEFF30983C3E902756FF00100A9E78C
:103510006FF00200A6E700BF2404002010B50446A7
:10352000EFF3058333B100206FF0050101F07EFA5F
:10353000002010BDFFF7DAFD0028F4D1DFF808C045
:10354000204600DFF5E700BF1D3101002DE9F04105
:1035500006460F4690461C46EFF305834BB196B9DD
:1035600030466FF0030101F061FA6FF00300BDE82F
:10357000F081FFF7BBFD0028F1D1DFF84CC03046E9
:10358000234600DFF3E73378FA2BE9D1002FE7D0A9
:10359000002CE5D106F10C00FFF76AFD054680B16D
:1035A000726A39460C300CF0DDFEF9232846C5E975
:1035B00001762B70AC7085F8038000F067FC204624
:1035C000D5E76FF00200D2E785330100F8B5044675
:1035D0000F4616461D46EFF3058343B18CB92046CE
:1035E0006FF0030101F022FA6FF00300F8BDFFF75E
:1035F0007DFD0028F2D1DFF848C020462B4600DFD1
:10360000F4E72378FA2BEAD1002FE8D0002DE6D199
:103610002046FFF713FE054670B100F10C01626A07
:1036200038460CF09FFE0EB1EB7833702846EC6004
:1036300000F02CFC0020D9E76FF00200D6E700BFB5
:1036400041340100EFF310832BB9EFF31180003800
:1036500018BF0120704701207047000070B5A8B363
:103660008468D0E900566CB114F0030302D1C2683B
:103670001B2A1AD86FF00801002001F0C7F90024B6
:10368000204670BDC368002BF4D1124BD3F89400D0
:1036900030B9D3F8800001221C21FFF775FC01E04E
:1036A000FFF7E6FC044660B10123F522A370002376
:1036B000C4E90233C4E904332270E67065602376FE
:1036C000DEE76FF0040101F0A1F9D9E705460646EF
:1036D000DBE700BF24040020284B70B55D69044679
:1036E0000E4635B96FF0070101F090F94FF0FF3049
:1036F00070BD10B10378F52B07D020466FF00301A1
:1037000001F084F96FF00300F2E7037E53B9C0E9DA
:103710000353EB6A436103B11861EC620123237622
:103720000020E5E7C278D1070DD5C168A9420AD1CA
:10373000FF2B06D16FF00F0101F068F96FF0020066
:10374000D6E70133EBE7002EF8D093070AD5E068FF
:1037500095F9203090F920209A4203DA80F8203041
:1037600000F0A4FC3146532000F04EFE18B129466B
:10377000204600F077FC6FF00100B9E72404002038
:1037800038B52F4B5A69044632B96FF0070101F082
:103790003DF94FF0FF3038BD10B10378F52B07D05D
:1037A00020466FF0030101F031F96FF00300F2E7FA
:1037B000037E33B96FF00E0101F028F96FF00200BB
:1037C000E9E7C168914202D06FF00D01F4E7013BD7
:1037D000DBB2037633BB43690BB10169196121691F
:1037E00011B34B61E3789B0705D592F92110D36A99
:1037F000E3B982F82010A3688BB1204600F044FCA6
:1038000000220546114600F0EFFC00232361EB6A1D
:10381000E560636103B11C610123EC622376002043
:1038200000F0B6FC0020B6E7D362DBE7986820B171
:1038300090F920008142B8BF01465B69D8E700BF1C
:103840002404002070B5044610B10378F52B07D08E
:1038500020466FF0030101F0D9F86FF0030070BD4E
:10386000037ED3B16369C0680BB122691A61226912
:103870001AB35361E3789B070BD590F92130C26AE4
:10388000EAB990F920209A4203D080F8203000F065
:103890000DFCA068E0B900F07BFCA078002610F0D9
:1038A00001002670DBD0124BD3F894502146C5B1ED
:1038B0002846FFF7F7FB3046D1E7C362DAE79168A5
:1038C00021B191F920108B42B8BF0B465269D7E75E
:1038D000204600F0D9FB00226FF0020100F084FCCA
:1038E000D7E7D3F88000FFF784FB2846B7E700BF8F
:1038F000240400202DE9F0410446002601270CB9DC
:10390000BDE8F081E378D4F814801B0712D5A368D2
:1039100026767BB1204600F0B7FB00220546114613
:1039200000F062FCEB6A6361C4E9035603B11C61F9
:10393000EC6227764446E2E710B4C3789B071AD5B9
:10394000C06890F92130C26A94688C4208BF8C68C4
:1039500024B194F92040A342B8BF23465269002AFB
:10396000F2D190F920209A4205D080F820305DF8FD
:10397000044B00F09BBB5DF8044B704708B5024652
:10398000EFF3058333B100206FF0050101F03EF83D
:10399000002008BDFFF756FE0028F4D1DFF808C06C
:1039A000104600DFF5E700BF5D36010008B50246AE
:1039B000EFF305833BB110466FF0050101F026F8E7
:1039C0006FF0050008BDFFF73DFE0028F3D1DFF8DA
:1039D00008C0104600DFF5E7D936010008B50246F9
:1039E000EFF305833BB110466FF0050101F00EF8CF
:1039F0006FF0050008BDFFF725FE0028F3D1DFF8C2
:103A000008C0104600DFF5E78137010008B502461F
:103A1000EFF305833BB110466FF0050100F0F6FFB0
:103A20006FF0050008BDFFF70DFE0028F3D1DFF8A9
:103A300008C0104600DFF5E745380100EFF31083BA
:103A40002BB9EFF31180003818BF01207047012017
:103A500070470C30D0E85F3F13B9BFF32F8F04E0FD
:103A60005A1EC0E8512F01B1F4E798B2003818BFD0
:103A70000120704730B500F10C02C189D2E85F3FE8
:103A8000994202D8BFF32F8F04E05C1CC2E8554F67
:103A900005B1F3E7C0899BB2984294BF0020012092
:103AA00030BD0000F8B50E464FF6FE73411E994238
:103AB000054601D8B04207D26FF00301002000F0A4
:103AC000ABFF00242046F8BD1AB39468176844B1D0
:103AD00014F0030302D1D2680F2A0ED86FF0080148
:103AE000ECE7D368002BF9D1114BD3F8980090B1D3
:103AF000FFF7BEFA0446A8B10123A3700023F62203
:103B0000A3600B4B22700B4A6760A681E5819A6621
:103B1000D8E71746E8E7D3F8800001221021FFF725
:103B200033FAE7E76FF0040100F076FFCAE700BF61
:103B300024040020A93B010070B5054610B10378AC
:103B4000F62B07D028466FF0030100F065FF6FF0F9
:103B5000030070BD836863B1284600F095FA002227
:103B60006FF0020100F040FBA8680028F4D100F0DB
:103B70000FFBAB78002613F001032E700FD0094B1A
:103B8000D3F89840294624B12046FFF78BFA3046F7
:103B9000DFE7D3F88000FFF72CFA2046D9E7184674
:103BA000D7E700BF24040020836810B504465BB14A
:103BB000FFF74FFF40B1204600F066FA0022BDE853
:103BC0001040114600F010BB10BD38B5054610B1CD
:103BD0000378F62B07D028466FF0030100F01CFF96
:103BE0006FF0030038BD84683CB100F04DFA01224B
:103BF000002100F0F9FA0020F4E7FFF73BFF38B9A5
:103C000028466FF0100100F007FF6FF00200E9E7AF
:103C10002046E7E738B50D46044610B10378F62B89
:103C200007D020466FF0030100F0F6FE6FF00300AE
:103C300038BDFFF70EFF68B975B12946632000F063
:103C4000E3FB20B1064B2046596900F00BFA6FF0F8
:103C50000100EDE70020EBE76FF00200E8E700BFAE
:103C60002404002010B50446EFF3058333B100208F
:103C70006FF0050100F0D0FE002010BDFFF7DEFE62
:103C80000028F4D1DFF808C0204600DFF5E700BFC8
:103C9000A53A010010B502460C46EFF3058343B187
:103CA00082B910466FF0030100F0B6FE6FF003001A
:103CB00010BDFFF7C3FE0028F2D1DFF824C0104684
:103CC00000DFF5E71378F62BEBD1002CE9D1104695
:103CD000FFF7BFFE002814BF00206FF00200E7E7E7
:103CE000153C010010B50446EFF3058343B184B9D8
:103CF00020466FF0030100F08FFE6FF0030010BD4F
:103D0000FFF79CFE0028F2D1DFF830C0204600DF2C
:103D1000F5E72378F62BEBD12046FFF7ABFE20B179
:103D2000204600F0B3F80020E9E720466FF01001CC
:103D300000F072FE6FF00200E1E700BFCB3B010034
:103D400008B50246EFF305833BB110466FF005015D
:103D500000F062FE6FF0050008BDFFF76FFE00285F
:103D6000F3D1DFF808C0104600DFF5E7393B01006A
:103D700010B5D0E85F3F5A1C914200D80022C0E83D
:103D8000542F04B1F5E798B210BD000038B51A4CB5
:103D900000F0D4FEE3680133E360236D03B198477C
:103DA00000F09EF9002000F0F3F9236C1BB3A26B26
:103DB000A1698A4202D0A163E3631CE0E36BB3B95B
:103DC000237A022B17D1656AADB195F9201092F9CB
:103DD000203099420FD1284600F05FF9A06B00F027
:103DE00077F9284600F0CAF9236CA563E4E7013BA4
:103DF000E363002BE4D038BD2404002070B5224CCE
:103E000004F1560504F15A06B4F85410D5E85F3FA2
:103E100013B9BFF32F8F04E05A1EC5E8502F00B12D
:103E2000F4E79BB25BB33046FFF7A2FFE36D53F8B4
:103E3000200020B30378F13B082BE5D801A252F80B
:103E400023F000BF693E0100093E01006F3E010002
:103E5000093E0100093E0100733E0100773E01006A
:103E6000093E01007B3E0100236E9847CCE7636E5C
:103E7000FBE7A36EF9E7E36EF7E7236FF5E7BDE82D
:103E80007040002000F084B92404002070B5164C66
:103E90000546B4F8541004F15602D2E85F3F994247
:103EA00002D8BFF32F8F04E0581CC2E8560F06B1AA
:103EB000F3E79BB2994205D829460220BDE870403D
:103EC00000F054BD04F15800FFF752FFE36D43F8D2
:103ED0002050637A23B9054B4FF080525A6070BD71
:103EE0000123A372FBE700BF2404002000ED00E0E3
:103EF000EFF310832BB9EFF31180003818BF0120C6
:103F00007047012070470378F12B00D07047C068DC
:103F1000F9E7000010B50A4A90F920100123437018
:103F2000536A1C321BB193F920408C4205DCC0E976
:103F30000232906003B1D86010BD1A469B68F1E769
:103F400024040020014B5869704700BF240400205E
:103F500010B50023038083789A07044608D513F030
:103F6000100F016B0E4B0FD0D3F88400FFF79AF8B7
:103F7000A378DB0712D50A4BD3F88800214638B165
:103F8000BDE81040FFF78EB8586FFFF732F8EFE743
:103F9000BDE81040D3F88000FFF72BB810BD00BF7C
:103FA0002404002008B500F047FDDFF810C000DF52
:103FB0004FF0FF31002000F01DFDFEE7C544010079
:103FC00010B5C469621CD0E904310AD103B159614A
:103FD00042691AB113610023436101E0064A136389
:103FE00010BD1BB1DA6959612244DA614269002AC5
:103FF000F0D1014AD362F3E724040020930710B5FF
:1040000002F0010422D400F1280384B153E8000F28
:1040100000EA01028A4203D0BFF32F8F002005E09F
:1040200020EA010243E8002404B1EFE710BD53E8A1
:10403000000F084203D1BFF32F8F002005E020EAD4
:10404000010243E8002404B1F1E7EFE7806A01EAE6
:1040500000031CB18B4218BF0020E7E7002B08BF0C
:104060000020E3E710B591F9202083681BB193F994
:104070002040944205DAC1E90230816003B1D96081
:1040800010BD18469B68F1E783689A68826002B1A8
:10409000D0600022DA6018467047C2682AB183688F
:1040A000936003B1DA600023C360704710B5044623
:1040B00064B12378F12B07D0FFF7EFFF01462046CC
:1040C000BDE81040FFF7CEBFE468F1E710BD000087
:1040D0000123014643700148FFF7C4BF400400209C
:1040E00038B5164DEC6A44B3E369013BE36123BB89
:1040F0006378732B06D009D8532B0BD003F0DF0362
:10410000432B0DD12046FFF7FEFE09E003F0EF033D
:10411000832BF6E72046FFF7F6FE2146FFF70CFC5F
:104120002046FFF7BAFFFFF7D3FF246924B1E36904
:10413000002BDDD000236361EC6238BD2404002035
:1041400090F82230826B13F0100F0CBF60202020FB
:1041500010447047074B596951B10B6B8A6B9342FE
:1041600003D21A68044B9A4202D0012000F0FEBB31
:10417000704700BF24040020A52E5AE208B5022390
:104180004370024B9861FFF7E5FF08BD240400204F
:1041900010B5144B04461A7A5969A0B9022A1FD1E6
:1041A0005C6AECB194F9202091F920309A4217DD35
:1041B0002046FFF772FF0846FFF7ACFE2046BDE839
:1041C0001040FFF7DBBF022A05D190F9202091F9BA
:1041D00020309A42EFDC2046BDE81040FFF778BF60
:1041E00010BD00BF2404002038B505461446FFF773
:1041F000A7FF01602846FFF7E3FE1CB1BDE8384089
:10420000FFF7C6BFBDE83840FFF762BF10B543787F
:10421000332B04460CD1416A90F82320FFF7EEFEC1
:10422000014628B120460022BDE81040FFF7DCBF60
:1042300010BD00002DE9F04F85B08046029128B9ED
:104240006FF0030100F0D6FB0024ABE0002A48D059
:10425000D2E900A3946896690193D2E904B544B108
:10426000A10702D1D268432A06D86FF008010020C6
:10427000E8E7D268002AF8D1BBF1000F08D01BF0A4
:10428000070F02D1002D40F0A9806FF00A01EEE780
:104290002EB1721E372A03D96FF00B01E7E71826FB
:1042A000002D40F09F804CBB524CD4F88800F0B1F8
:1042B000FEF7DEFE0446002800F08D800127DFF8BF
:1042C0003491BBF1000F32D1D5B94B4AD9F88400F3
:1042D000556DA8B1FEF7CCFED0B147F0100783466C
:1042E00021E092469346182615460192DCE7D4F861
:1042F000800001224421FEF747FEDBE70027DEE7CE
:10430000D9F874005A462946FEF73EFE0028E6D149
:10431000002F55D0D9F88820002A47D021461046D2
:10432000FEF7C0FE002447F00207002C53D040F2F5
:10433000F11222800022C4E90222C4E90422C4E965
:104340000622C4E90922C4E90B2BA5F140025A4414
:10435000C4E90E28019B294AE37076B2FD21A770BB
:10436000C4F804A084F8206084F821606184656347
:10437000CBF80020204A1268530723D4A36B3422C1
:10438000184600210CF0ECF81D4A1E4BC0E90D2820
:104390004FF08072C263029A02622046C9F8603010
:1043A000FFF7F6FE204605B0BDE8F08F2146D9F8AC
:1043B00080000392FEF71DFE039A14469346B2E76F
:1043C0003C46B0E725F00302443ACC210BF104004F
:1043D0000CF0C6F8D2E76FF0040148E7002E7FF436
:1043E00058AF18266A077FF450AF472D3FF65BAFF2
:1043F0004BE700BF24040020D4400200A52E5AE25F
:10440000A53F01000D42010038B51E4C237A022B56
:1044100034D1636A002B33D063694A1C587015D1BC
:10442000226B00216AB94FF0FF30C3E90421D86143
:1044300051B10B611448FFF727FEFFF79FFE0120E3
:1044400038BD11461269EDE72363F3E7E26A002005
:1044500012B1D569A9420BD2C3E90420D96158B180
:104460000361002AE6D0D0695361401AD061E1E7C8
:104470001046491B1269EBE7E362F2E70020DFE731
:104480001846DDE7240400204004002010B50C4B42
:104490001A7A022A11D15C6A7CB1596994F92020F8
:1044A00091F920309A4208D12046FFF7F6FD0846E0
:1044B000FFF70EFE2046FFF761FE002010BD00BF93
:1044C0002404002038B5154D2B7A022B25D16B6AB8
:1044D0001BB36C69E06AFFF70DFAA06918B10022FE
:1044E0001146FFF781FEEFF309830D48A363FFF741
:1044F000CBFDFFF743FE00236B61E278D20704D4C3
:104500002046BDE83840FFF723BD04226270E36017
:104510006B6BA36003B1DC606C6338BD24040020C6
:104520004004002038B5044610B10378F12B07D0C1
:1045300020466FF0030100F05DFA6FF0030038BD14
:10454000437803F00F03022B25D0032B32D0012B2D
:1045500035D1FFF7A2FDE06AFFF7CCF9A06918B1E9
:1045600000221146FFF740FE6378022B2AD1EFF3B9
:1045700009831C48A363FFF787FDFFF7FFFD1A4B74
:1045800000225A61E07810F001051FD12046FFF7A4
:10459000DFFC0020D3E7144B1A7A022A02D15B6AAF
:1045A000002BD8D16FF00201204600F023FA6FF003
:1045B0000200C4E7FFF771FDFFF702FDCBE76FF0E4
:1045C0000201F2E70020FFF7E3FDDBE70423064AE0
:1045D00063700023E360536BA36003B1DC6054633A
:1045E000D7E700BF400400202404002038B50B4C5E
:1045F0000B48A26D0B4D0021FFF71CFE636EA862F5
:104600004BB1E26D08480021FFF714FEA8640038A2
:1046100018BF012038BD0120FCE700BFD4400200D4
:1046200065490100240400207147010010B50446CB
:10463000EFF3058333B100206FF0050100F0DAF9E4
:10464000002010BDFFF754FC0028F4D1DFF808C0AB
:10465000204600DFF5E700BF3542010008B5EFF363
:10466000058313B1054B586908BDFFF741FC0028CD
:10467000F8D1DFF80CC000DFF6E700BF240400200B
:10468000453F010008B5EFF305833BB100206FF013
:10469000050100F0AFF96FF0050008BDFFF728FC39
:1046A0000028F3D1DFF804C000DFF6E78D440100F5
:1046B00010B5044600F0CCF9EFF305833BB120467A
:1046C0006FF0050100F096F96FF0050010BDFFF7DF
:1046D0000FFC0028F3D1DFF808C0204600DFF5E723
:1046E0002545010030B50C4D6B6C002213B11C69DF
:1046F0008C420AD9C0E9022301611BB11C69986090
:10470000641A1C612AB1D06030BD1A46091BDB68EF
:10471000ECE76864F8E700BF2404002070B5134D8F
:104720006C6C04B32369013B236101262369D3B96F
:10473000E3680BB1A2689A606B640023E86C1A46C8
:1047400004F11801FEF702FF18B12146032000F022
:104750000DF9E378012B07D161692046FFF7C2FF0D
:104760006C6C002CE2D170BD6670F9E72404002067
:104770000B4B0C4C07B51A6E586E0821FEF7CEFE97
:10478000094BE0642365E06C4FF0FF33002269467B
:10479000FEF71CFF0028F6D1DDE900309847F2E76C
:1047A000D4400200240400201D47010008B5094B35
:1047B000094A1A60094B9B1A094A1360094B0A4AB5
:1047C0001A600A4B9B1A0A4A136000F051F800F075
:1047D00069F800BFDC2B002000FC0320000004204F
:1047E000D82B0020BCB0002090B8002000FC032093
:1047F000B8B000200E4838B50E4B03600B250E4BA9
:1048000045601C24C4608360FFF7B8F80B4B186048
:104810000B480C4BC460C0E900350B4B8360FFF7BD
:10482000ADF80A4B1860BDE838400BF0ABB900BFDB
:10483000A82B0020A0410200BC2B0020B82B002098
:10484000782B0020AD4102008C2B0020882B00200B
:10485000FCF706BA024B4FF0FF311868FFF7A6B815
:10486000B82B0020014B1868FFF7B8B8B82B002010
:1048700008B505F07DFDBDE8084000F011B87047AF
:10488000704708B500F042F8FFF7F9FFFFF7B2FFF5
:10489000FFF7F6FF03F09CFCBDE80840FFF7D8BF28
:1048A000FEF702BB114C124B23614FF400436361CE
:1048B0004423E3600F4BA360182307B5A3610E48A0
:1048C0000E4B236022460021FFF7B0FE034628B9B5
:1048D0000B49009022460B4803F082FCFEF7FCFADD
:1048E0000023094900931A46F5E700BFE0AB00201A
:1048F000E02B002004AC002083480100B7410200F7
:10490000BC4102001D010180D84102001FB5064BC9
:104910000FCB6C4684E80F002046FFF72FF8034BBF
:10492000186004B010BD00BF0042020048AC002077
:1049300073B506460C46154603F04CFC58B90634D0
:104940002ABF064B064953F8241000230093324631
:10495000284603F045FC02B070BD00BFC44302000E
:104960001843020008B500F0F3F8000007B5002373
:10497000411E009302460023042919D8DFE801F004
:1049800003080C1014000C490C48012203F028FC09
:104990000B490C480222F9E70B490C480322F5E7C2
:1049A0000B490C480422F1E70B490C480522EDE7BE
:1049B0000B490C48EAE700BF1042020025010280C3
:1049C0003142020026010280564202002701028085
:1049D0008B42020028010280C64202002A010280A6
:1049E0000643020000010280014A0146FFF7A0BF12
:1049F00031010180014AFFF79BBF00BF32010180F6
:104A0000014AFFF795BF00BF37010180014AFFF758
:104A10008FBF00BF3301018011F1110F02D0024A94
:104A2000FFF786BF704700BF34010180014AFFF7DE
:104A30007FBF00BF3801018010B5FFF70FFE034BA9
:104A40001B6813B1BDE81040184710BD68AC0020CA
:104A5000024B1B6803B11847704700BF68AC0020C9
:104A6000024B987A003818BF0120704724040020B8
:104A700008B5FEF747FA0749002203F043FCC31CC0
:104A800004D9054905488B2203F08EF9BDE808409A
:104A9000FEF74CBA614A0100DC43020011440200F7
:104AA000B0F57A7F38B50D4604D01849184832223F
:104AB00003F07AF902F092FE041E13DB04F1604366
:104AC00003F56143E02283F800232946204604F0E1
:104AD0002DFE204604F032FE85420AD00B490D48D7
:104AE0003F22E5E70C4B04F00F021344E0221A7654
:104AF000EBE7002C07DB094A6109012304F01F04DE
:104B0000A34042F82130002038BD00BFDC43020042
:104B10003E4402004B440200FCEC00E000E100E0F7
:104B200008B503F077FBBDE8084002F04CBF000079
:104B3000014B186802F07CBFE8AF0020014B1868F9
:104B400002F038BFE8AF002008B502F047FE08BD0C
:104B500008B5024C23689847FCE700BFC804002052
:104B600003680BB1084618477047CB68C3600BB1A8
:104B70005B68184770470000044B0022C3E900221D
:104B80009A601A61024ADA60704700BF6CAC00207C
:104B9000614B010038B504460D46002100F8011BA9
:104BA00010220BF0DDFC6582204638BD08B542F6C8
:104BB00002110248FFF7EEFF08BD00BF80AC0020E5
:104BC000C36810B52BB9054905484FF4FD7203F0D1
:104BD000EBF8BDE810401B68184700BF784402009E
:104BE000A7440200034B1A78034B53F8223003B159
:104BF00018477047CC04002094AC0020074B1B786A
:104C00005BB1074B0122C3F80823064B5A78FF2AF1
:104C100000D1FEE7044A12885A707047ACAD0020FC
:104C200000F00040A8AC0020AEAD0020F8B505466D
:104C3000064655F8044B8CB90D4F386818B14FF043
:104C4000FF31FEF7B3FE346824B9284604F072F849
:104C50002C463560386808B1FEF7C0FEAC4204D07F
:104C6000044905488B2203F09FF82046F8BD00BF99
:104C700048AC0020B3440200E6440200036801226D
:104C80001B6900211847036800221B691146184759
:104C900007B5019003F032F90198012105F0A6F85B
:104CA00003B05DF804EB03F03FB907B5019003F0E2
:104CB00025F90198002105F099F803B05DF804EB9F
:104CC00003F032B907B5CDE9001003F017F9DDE9BB
:104CD000001005F069F803B05DF804EB03F024B9A7
:104CE000416830B4034671B1D0E9032000F00104FB
:104CF00002B944B1451001EB60000CB149598A5822
:104D0000996830BC104730BC7047000008B5431CA0
:104D100004D10E490E48212203F046F8012351B177
:104D20001F2886BF0B4A00F01F004FF0A0428340AF
:104D3000C2F8083508BD1F2886BF064A00F01F00CC
:104D40004FF0A0428340C2F80C35F3E7094502005A
:104D5000F93C020000030050064B10B50446036006
:104D6000806A08B102F06EFB201DFBF774FF20463D
:104D700010BD00BF4C45020010B50446FFF7ECFF24
:104D80002046802103F028FE204610BD036870B540
:104D900004460D461B68984704F13000A567294674
:104DA00005F034F9034B1C60236820465B68BDE8BE
:104DB00070401847D8AD0020036870B5094D1B68D6
:104DC000044698472B68A34205D0A16F04F1300038
:104DD00005F01CF92C60236820465B68BDE8704034
:104DE000184700BFD8AD00207FB51D4603680446B4
:104DF000CDE902211B6898472046FFF7DDFF9DF8AB
:104E0000203083F00103DDE90221009304F130003A
:104E10002B4605F057F9236806465B6820469847FD
:104E2000A81B18BF012004B070BD7FB51D460368E4
:104E30000446CDE902211B6898472046FFF7BCFFD6
:104E40009DF8203083F00103DDE90221009304F195
:104E500030002B4605F01AF9236806465B682046A9
:104E60009847A81B18BF012004B070BD7FB500246F
:104E7000012615462346224602A800968DF80840D2
:104E800002F080F803A800962346224629468DF8B2
:104E90000C4002F077F803A804F058FF002853D024
:104EA00002A804F053FFB04202D1002004B070BD4C
:104EB000214603A8FFF706FF03A8FFF7E9FE0A242F
:104EC000002103A8FFF7FEFE00219DF90C00FFF76B
:104ED0001DFF052003F0B6FE032103A8FFF7F2FE35
:104EE0009DF90C000121FFF711FF052003F0AAFE38
:104EF000013CE5D102A8FFF7CBFE21469DF9080051
:104F0000FFF704FF052003F09DFE01219DF90C0031
:104F1000FFF7FCFE052003F095FE01219DF9080036
:104F2000FFF7F4FE052003F08DFE02A8FFF7BDFE9B
:104F300003A8FFF7BAFE03A804F008FF20B102A8F7
:104F400004F004FF0028B0D16FF00100AEE70000CC
:104F500008B50348FFF76AFEBDE8084003F0F2BE5B
:104F6000B0AD002008B50348FFF760FEBDE808407B
:104F700003F006BFB0AD0020F8B5184B03600D4636
:104F8000174B4361002100F130070446C0E90711C7
:104F9000C0E90911164601618185482280613846C1
:104FA0000BF0DEFA0F4BA3672046FFF7D1FF324626
:104FB000294684F87C5084F87D602046FFF756FF30
:104FC00094F97D2094F97C10384604F0D9FF064B03
:104FD00020461C60FFF7C6FF2046F8BD4C45020086
:104FE000E14C0100A0860100D8AD002070B5044658
:104FF0000D461646002148220BF0B2FA32462946E9
:10500000204604F0BDFF2046044904F0FFFF20467F
:10501000012105F079F8204670BD00BFA08601008F
:1050200004F0F4BFCAB2002342F00102194605F0B1
:10503000CFB805F07BB805F08BB810B5144605F075
:10504000A7F8001B18BF012010BD04F0F7BF704780
:10505000416830B4034671B1D0E9032000F0010487
:1050600002B944B1451001EB60000CB149598A58AE
:10507000996830BC104730BC7047000070B500F133
:105080004C0690F9DF2090F9DE100446304605F01A
:1050900013FCD4E939530DB9DA070ED55A1004EBD5
:1050A0006300DB0748BFA35894F8EC1048BF5D5974
:1050B00094F9ED2094F9EE30A847D4F8D810304692
:1050C00005F010FD224630460249BDE8704005F06B
:1050D000E7BD00BFA95301002DE9F0411F46D0F8FC
:1050E000E03004460D4616462BB11749174840F2EA
:1050F0002B1202F059FE164AC0E9392303681B68D7
:10510000984784F8EC5084F8ED6084F8EE70032D35
:105110000BD8DFE805F0150210154FF0FF333246CB
:10512000012104F14C0005F095FD236820465B68E1
:10513000BDE8F041184733464FF0FF320221F0E757
:105140003B4632462946ECE75C45020084450200B6
:10515000D95001002DE9F04198461D4B03601D4BCD
:10516000436000251C4B85600446C0E90555C0E935
:1051700007550F461646C360858445634564A0F80D
:1051800048506C22294600614C300BF0E9F940F29E
:105190000113A4F8DC304FF47F43A4F8EC30FF2374
:1051A0002046C4E93558C4E93855C4E93C55C4F82B
:1051B000C45084F8DE7084F8DF60C4F8E85084F8E6
:1051C000EE30C4F8F850FFF759FF2046BDE8F081F3
:1051D000A44502007D5001005150010070B5064603
:1051E000044656F84C3B0D461B6898473046294606
:1051F00005F078FC2368C4F8D85020465B68BDE809
:10520000704018477FB50546044655F84C6B01932E
:10521000CDE902213668B047DDE90132284603991D
:1052200005F0E0FC23685B68204604B0BDE87040F0
:10523000184738B50546044655F84C3B1B68984757
:10524000284605F0E1FD236805465B68204698473F
:10525000284638BD38B50546044655F84C3B1B6812
:105260009847284605F0F0FD236805465B68204610
:105270009847284638BD03682DE9F34105461B6869
:1052800016460F46984795F8DC30340103B1B6B1A5
:1052900095F8DD300BB1012E11D0B8342819B84281
:1052A00006D00190FBF7D7FC01983946FFF75DFC6B
:1052B0002B685B68284602B0BDE8F0411847B83457
:1052C00002F01CFE2C44FA68E36805F14C089AB120
:1052D0000BB903F049F8A74206D02046FBF7BBFC08
:1052E00039462046FFF741FC01223146404605F091
:1052F000E7FC02F019FEDBE70BB103F04BF82046A8
:10530000FBF7A9FC0022E260EFE7000030B51B4B81
:10531000036085B000252A46694604460395FFF7D9
:10532000AAFF6846FBF797FC0122694620460395D1
:10533000FFF7A1FF6846FBF78EFC94F8DC3013B949
:1053400094F8DD301BB104F14C0005F095FB04F13D
:10535000C800FBF780FC04F1B800FBF77CFC04F10B
:105360003800FBF778FC04F12800FBF774FC206A96
:1053700008B102F067F8204605B030BDA445020030
:1053800010B50446FFF7C2FF2046FC2103F024FBC2
:10539000204610BD4C3005F0BFBC10B54C300C465B
:1053A00005F0FCFC204610BD00EB0110B83008B53C
:1053B000C3680BB1FFF704FC08BD036870B5044671
:1053C0001B680D46984794F8DC30AB422BD065B192
:1053D00094F8DD304BB9A2686368511004EB6200A9
:1053E000D20744BF6258D358984702F087FD05B3EF
:1053F000D4F8C4305BB104F1B800FFF7E1FB02F070
:10540000B3FF0122002104F14C0005F059FC02F029
:105410008BFD84F8DC5035B994F8DD301BB904F10C
:105420004C0005F029FB236820465B68BDE870400E
:1054300018472A46294604F14C0005F041FCD4F8EF
:10544000C430002BE3D002F0A5FFE0E7036870B59D
:1054500004461B680D46984794F8DD30AB422BD0CC
:1054600065B194F8DC304BB9A2686368511004EB65
:105470006200D20744BF6258D358984702F03EFDFD
:1054800005B3D4F8D4305BB104F1C800FFF798FB42
:1054900002F06AFF0122114604F14C0005F010FCF5
:1054A00002F042FD84F8DD5035B994F8DC301BB9C8
:1054B00004F14C0005F0E0FA236820465B68BDE883
:1054C000704018472A46012104F14C0005F0F8FB12
:1054D000D4F8D430002BE3D002F05CFFE0E7437D4A
:1054E00010B504461BB1037D0BB102F053FF2046FB
:1054F00010BD13B5044601A801F0ACFF637D53B99C
:10550000237D0BB102F030FF206901F05DFFC4E99B
:1055100000010123637501A801F0A4FF02B010BDD2
:1055200037B504460D4601A801F094FF0023002280
:10553000C4E900236B7D4BB1286901F045FFD5E933
:105540000032C01A61EB0201C4E9000101A801F0B8
:1055500089FF204603B030BD30B585B004460D4606
:1055600003A801F077FF29466846FFF7D9FFD5E980
:105570000221009B9B18019A42EB0102C4E9003210
:1055800003A801F06FFF204605B030BD13B50446F7
:1055900001A801F05FFF206901F016FF002200233F
:1055A000C4E90001C4E9022301A801F05BFF02B0D5
:1055B00010BDD0B5002300260027C0E90067C0E970
:1055C00002670446016102754375FFF7DFFF20465D
:1055D000D0BD10B5044601F021FF0122014620464E
:1055E000FFF7E7FF204610BD10B5044601F0E6FCCA
:1055F000002201462046FFF7DCFF204610BD03686D
:105600001B68184710B50446074B2360002200238F
:10561000C4E9022300230846A161C4E90433034915
:1056200001F062FE204610BDBC450200FF5501009E
:1056300007B5009000F10801806901F092FE03B007
:105640005DF804FB00F10801806901F0A2BE0020B2
:1056500070476FF01C0070476FF01C0070476FF0D0
:10566000150070476FF0150070470120704701204A
:105670007047002070470020704770B511F001049A
:1056800005468EB204D0FFF7D4FD041E18BF0124D6
:10569000F30605D52846FFF7DDFD08B144F01004F8
:1056A000204670BDA0F1FC00FFF7E7BF08B5FFF78B
:1056B00084FE002008BDA0F1FC00FFF7F7BF08B58D
:1056C000FFF7C4FE002008BDA0F1FC00FFF7F7BF04
:1056D00010B5034B03600446FFF718FE204610BDCB
:1056E000C8450200A0F1FC00F2E700BF10B5044677
:1056F000FFF7EEFF20464FF4807103F06DF920466E
:1057000010BDA0F1FC00F1E72DE9F04106460D4681
:105710001746C2B102F0EFFB80F0010313F0FF0463
:1057200003D0336830461B68984705EB070815F827
:10573000011B3046FFF731FEA845F8D11CB1336894
:1057400030465B6898473846BDE8F081A0F1FC0020
:10575000FFF7DABF38B504460D4662B103681B682F
:1057600098472046FFF716FE2870236820465B689E
:105770009847012038BD1046FCE7A0F1FC00FFF778
:10578000E9BF000010B50446FFF7E4FC044B03F149
:10579000080244332260C4F8FC30204610BD00BF2C
:1057A000C045020030B5056885B00446CDE9022148
:1057B00001932D68A847DDE9013220460399FFF7E0
:1057C0008BFC23685B68204605B0BDE83040184775
:1057D00030B5044685B004F1080502F08FFB294678
:1057E0006846FFF7C2F92846FBF735FAE06900235F
:1057F000C4E9053308B103F025FB02F095FB039BD8
:1058000013B11B68684698476846FBF724FA05B051
:1058100030BD0000002204494260C0E90522016059
:10582000C2610284704700BF9C460200074B10B55E
:1058300003608369044623B105490648262202F025
:10584000B3FA0830FBF707FA204610BD9C46020069
:105850004C4602007546020070B504460E4602F042
:105860004DFBA56965B104F10800FBF7F4F90023CD
:105870000122636184F82020E36184F82160A36140
:1058800002F052FB2DB121462846BDE8704000F0E1
:105890002EB970BD08B103F055BA02F02FBB08B1A4
:1058A00003F06EBA02F040BB2DE9F041044686B029
:1058B0000E46174602F022FBA56902F035FB35B310
:1058C00001AD0021284603F097FA02F017FBD4E956
:1058D000068323B10F491048392202F065FAE561C9
:1058E00002F022FBB8F1000F0ED03946284603F033
:1058F0008BFA48B93046FFF7CDFF20460121FFF76C
:10590000ABFF3046FFF7CBFF284603F09EFA06B008
:10591000BDE8F0814C460200834602000022C0E947
:10592000012201220160027370477047037B33B18B
:10593000D0E90023126893428CBF0023012318464C
:1059400070472DE9F0410468012606FA01F10023B1
:10595000271D82EA060E17F813400C4204D004F00B
:1059600030043AB1102C07D10233202BF3D14FF081
:10597000FF300DE0002CF7D0D0F808C042EA030554
:1059800006FA05F818EA0C0FEED1202C02D02846B2
:10599000BDE8F0814EEA030406FA04F414EA0C0FA1
:1059A000F5D0E1E770B50D4611462A4604461E467D
:1059B000FFF7C7FF002802DA0020207370BD2568BA
:1059C0006368420805EB8205E98819446B7906FB98
:1059D000031363600121A36881400B4342EAC010B6
:1059E000A360C0B2EAE713460A460121FFF7DABF17
:1059F00013460A460021FFF7D5BF13B50A460191A9
:105A000000210446FFF7EFFF019A0021204602B073
:105A1000BDE81040FFF7ECBF0022C0E9002270474C
:105A200070470068704700230B60436813B901603A
:105A3000416070471960FBE703682BB11A6802B92F
:105A40004260026000221A601846704710B5046870
:105A5000002223468B420ED10AB10B6813608C42A0
:105A600004BF0B68036043688B424FF0000308BF1C
:105A700042600B6010BD002BFCD01A461B68E9E7A2
:105A800010B50446FFF7C8FF204610BD08B5FFF764
:105A9000C8FFB0FA80F0400908BD70B50546284639
:105AA000FFF7BFFF044678B150F8043C061F9B681F
:105AB0003046984740B12846FFF7BEFF54F8043CF3
:105AC0003046DB689847EAE770BD70B504460D467E
:105AD000FFF7A7FFAC610646291D2046FFF7A3FF8D
